:020000040800F2
:10000000F0B50020196F0008410E0008430E0008EB
:10001000470E00084B0E00084F0E000800000000BD
:10002000000000000000000000000000530E000867
:10003000550E00080000000091B90008B56C0008DA
:10004000336F0008336F0008336F0008336F000808
:10005000336F0008336F0008336F0008336F0008F8
:10006000336F0008336F0008336F0008336F0008E8
:10007000336F0008336F0008336F0008336F0008D8
:10008000336F0008336F0008336F000849550008CC
:100090006D540008336F0008336F0008336F000899
:1000A0002F430008F7420008336F0008336F000841
:1000B000476900085D430008336F0008336F00088C
:1000C000336F0008336F0008336F0008336F000888
:1000D000336F0008816E0008336F0008B1670008B5
:1000E000336F0008336F0008336F0008336F000868
:1000F000336F0008336F0008336F0008336F000858
:10010000336F0008336F0008336F0008336F000847
:1001100025680008336F0008AB420008A968000892
:10012000336F0008336F0008336F0008336F000827
:10013000336F0008336F0008336F00087D550008E7
:10014000E3540008336F0008336F0008336F000872
:10015000336F0008336F0008336F0008336F0008F7
:10016000336F0008336F0008336F0008336F0008E7
:10017000336F0008336F0008336F0008336F0008D7
:10018000336F0008336F000800F002F800F069F8E0
:100190000AA090E8000C82448344AAF10107DA45E2
:1001A00001D100F05EF8AFF2090EBAE80F0013F0CB
:1001B000010F18BFFB1A43F001031847F4C20000F7
:1001C00014C300000A444FF0000C10F8013B13F078
:1001D000070408BF10F8014B1D1108BF10F8015BA0
:1001E000641E05D010F8016B641E01F8016BF9D193
:1001F00013F0080F1EBF10F8014BAD1C0C1B09D1EA
:100200006D1E58BF01F801CBFAD505E014F8016B5B
:1002100001F8016B6D1EF9D59142D6D370470000ED
:100220000023002400250026103A28BF78C1FBD8FF
:10023000520728BF30C148BF0B60704703681B0AD4
:1002400028BF41F0800164290BF0EC83F5290BF005
:100250002584002070471FB50BF0B0FE1FBD10B500
:1002600010BD0BF079FE1146FFF7F5FF00F01AF80C
:100270000BF097FE03B4FFF7F2FF03BC06F0A0FDFE
:1002800070B50446002500BF00F08CF90BF058FB58
:10029000054600F08CFA04200BF0D1F828460BF04C
:1002A00053FB70BD10B54FF4407006F055FE00F0E2
:1002B00011F800F001F909F0F5FB0423044A0021CC
:1002C000AFF243000AF042FE09F00EFD002010BD1F
:1002D000E006002010B50120FE490870FE480068C5
:1002E000FE4908604720FE49087006204860052046
:1002F0008860FA480068C860FA48086148610220CE
:10030000F9490870FF20F94908704FF6FF72802103
:10031000F7480BF000FD4FF6FF728021F5480BF017
:10032000FAFCF548C07920F080008030F249C871AD
:1003300010BD2DE9F0410BF003FB80464FF48051D6
:10034000002006F0F6F8064640460BF0FDFA16B916
:100350000020BDE8F0810BF0F3FA80464FF48051A5
:10036000002006F0E6F8074640460BF0EDFA5FB9CC
:100370000BF0E6FA80463146002006F0CAF8404607
:100380000BF0E2FA0020E4E74FF4805200213046FF
:1003900005F0A0FE002505E0705DFF2800D004E018
:1003A000681C85B2B5F5805FF6DB00BFB5F5805FF0
:1003B00001D10020CDE7002414E04FF48052002149
:1003C000304605F087FE4FF48051304605F0B2FF0D
:1003D00000B909E00A230022114610460BF028F963
:1003E000601CC4B2032CE8DB00BF032C22DA4FF4FC
:1003F00080521146384605F06DFE4FF48052394662
:1004000030460BF0E5FB28B14FF4805211463046E0
:1004100005F006FF0BF094FA80463146002006F006
:1004200078F83946002006F074F840460BF08CFA54
:1004300001208EE7002414E04FF480521146384624
:1004400005F048FE4FF48051384605F073FF00B9BF
:1004500009E00A230022114610460BF0E9F8601C5F
:10046000C4B2032CE8DB00BF032C15DA4FF4805232
:100470000021384605F0D4FE0BF062FA8046314682
:10048000002006F046F83946002006F042F84046C3
:100490000BF05AFA01205CE70BF052FA8046314625
:1004A000002006F036F83946002006F032F84046C3
:1004B0000BF04AFA00204CE710B5A82006F006FC25
:1004C00005F01EFA05F084FAA7214FF6FF7003F03D
:1004D00072FC002140F2A31003F08FFD42F20F7175
:1004E00042F2CF0006F0B0F940F2E731532006F0B7
:1004F000F9F9A7214FF6FF7003F0B6FC53214FF630
:10050000FF7003F00AFD06F06FFA002005F04FFFC0
:10051000022005F04CFF05F070FDFFF70AFF03F025
:10052000A3FB04F0DEF902F05FFF01220021B3EE2D
:10053000040A084603F0C0FF042200219FED6F0A61
:10054000012003F0B9FF04F079F903F086FD00F013
:10055000E3FF012251036A4805F0BCFD012242F28B
:100560000401684805F0B6FD01F06EFC4FF44870D8
:1005700006F0FCFB01220221634808F025FE012160
:10058000624807F0C0FA4FF48071614806F058FEE7
:100590001421002005F0CDFF5E4908605EA00BF03D
:1005A00035FA10BD10B500200AF085FA5D490860E3
:1005B00000200AF080FA5C49086000200AF07BFA0B
:1005C0005A49086000200AF076FA5949086000206C
:1005D0000AF071FA5749086000200AF06CFA56498F
:1005E000086000200AF067FA5449086000200AF009
:1005F00062FA5349086000200AF05DFA5149086028
:1006000000200AF058FA5049086000200AF053FA16
:100610004E49086000200AF04EFA4D49086000205B
:100620000AF049FA4B49086000200AF044FA4A49A6
:10063000086000200AF03FFA4849086000200AF0EC
:100640003AFA4749086000200AF035FA454908603F
:10065000002009F054FD4449086000200AF02BFAFC
:100660004249086000200AF026FA4149086000204B
:100670000AF021FA3F49086000200AF01CFA3E49BE
:10068000086000200AF017FA3C490860002009F0D1
:1006900036FD3B490860002009F031FD394908600A
:1006A0000A21394809F02AFF38490860002009F07A
:1006B00026FD37490860002009F021FD3549086012
:1006C000002009F01CFD34490860002009F017FDE6
:1006D000324965E001000020107AFF1F040000206D
:1006E000940300205C163401090000204200002021
:1006F0009402002014030020A80000203333054298
:10070000ED000020080000200040014000480040AB
:10071000001402400C000020B3F5CABCBBAFB3C943
:10072000B9A60000600000206400002068000020DE
:100730006C00002070000020740000207800002071
:100740007C00002080000020840000208800002021
:100750008C00002090000020E0000020E400002039
:10076000E8000020480000204C000020500000203D
:10077000CC000020580000209400002054000020ED
:10078000980000209C000020AC03002044000020C2
:10079000DC000020A4000020D4000020D8000020AD
:1007A0000860002009F0ABFCFE49086010BD10B5E0
:1007B0001523FD4A0021FD480AF0C8FB0523FC4A29
:1007C0000021FC480AF0C2FB0623FB4A0021FB483B
:1007D0000AF0BCFB0723FA4A0021FA480AF0B6FBEC
:1007E0001223F94A0021F9480AF0B0FB0F23F84A16
:1007F0000021F8480AF0AAFB0823F74A0021F7482D
:100800000AF0A4FB0A23F64A0021F6480AF09EFBF0
:100810000E23F54A0021F5480AF098FB0C23F44A10
:100820000021F4480AF092FB0923F34A0021F3481F
:100830000AF08CFB0D23F24A0021F2480AF086FBF5
:100840001123F14A0021F1480AF080FB1023F04AFD
:100850000021F0480AF07AFB1323EF4A0021EF4809
:100860000AF074FB10BD70B504462579042D16D02E
:1008700004DC012D07D0032D1AD108E0052D0AD084
:10088000272D15D110E0204600F04AFC10E020464C
:1008900000F08AFC0CE0204600F0E6FB08E0214670
:1008A000012004F040FD03E0204600F0CAFD00BF37
:1008B00000BF70BD70B506460C462579102D06D0D8
:1008C000112D0CD0122D06D0132D10D10BE0204687
:1008D00000F0CBFC0BE0204600F062FD07E0204674
:1008E00000F00EFD03E0204600F083FD00BF00BFD6
:1008F00070BD2DE9F04107460C469046A088C0F334
:1009000007252679022D6DD1202E1ED006DC102E53
:1009100040D0112E11D0122E62D143E0222E04D0ED
:10092000FB2E54D0FC2E5BD144E02146012004F084
:10093000FAFC204602F03CFF52E02146012004F080
:10094000F2FC204602F034FF4AE0B548C07900F0DE
:100950003C00B8B101202070B24800784FF400711B
:1009600041EA004040F0200040F0806060603520A7
:10097000207200202061204604F071FFAAA00BF035
:1009800045F806E02146012004F0CDFC204602F0A7
:100990000FFF25E02146012004F0C5FC204602F0AF
:1009A00007FF1DE02146012004F0BDFC204602F0B7
:1009B000FFFE15E02146012004F0B5FC9848C079FF
:1009C000C0F3400010B10020A049087008E02146A3
:1009D000012004F0A8FC9E4800680AF0A1F900BFBD
:1009E00000BF00BF00BFBDE8F0812DE9FE4F81468A
:1009F0008A4616461C46DDF830803746884800781F
:100A000001286ED1142F6DD008DC012F0DD0022FDC
:100A100069D0102F33D0122F70D170E0162F1DD057
:100A2000182F23D0FF2FF7D103E0204600F078FBEA
:100A3000B8E1012080F3138800BF00BFBFF34F8FE0
:100A40008448006800F4E06083490843001D814940
:100A50000860BFF34F8F00BF00BFFEE721460120B3
:100A600004F061FC204602F0A3FE9BE12146012038
:100A700004F059FC794800680AF052F992E178488C
:100A8000D0E90020521C40F100007549C1E9002066
:100A9000607A217AA288C2F30722CDE90021029070
:100AA0006F480CC86F480AF0B1FFA088C0F3072058
:100AB0006D490978884217D02146012004F033FCA3
:100AC000204602F075FEA088C0F30720009064481D
:100AD0000CC866A00AF09AFFA088000A6249087054
:100AE0000BE060E144E054E1A088C0F307200090EF
:100AF0005B480CC86C480AF089FF53E151E1A088BB
:100B0000C0F30720009056480CC868480AF07EFFE2
:100B10004348C07900F03C0000B365480078E8B96C
:100B20002146012004F0FFFBA088C0F307200090BD
:100B30004B480CC85FA00AF069FF01205C490870AF
:100B40000121002005F0F5FC0546A088000A287068
:100B500029466648006809F013FC08E0A088C0F345
:100B6000072000903E480CC861A00AF04FFF19E131
:100B7000A088C0F30720009039480CC86BA00AF089
:100B800045FF2748C07900F03C0048B121460120CC
:100B900004F0C9FBA088C0F3072000903048E5E0CE
:100BA000EDE000005C000020FC5C001079220008F1
:100BB000FC640010F7200008FC6C00107F21000886
:100BC000FC7400103B210008FC840010C5220008C2
:100BD000FC7C001005230008FC8C0010F5230008A5
:100BE000FC940010F92E0008FCA40010F12100086C
:100BF000FCAC00102B2A0008FCB40010432F0008A6
:100C0000FCBC001041270008FCC40010153100088E
:100C1000FCCC001083320008FCD4001031330008F3
:100C2000A800002008000020D4A4B6AFCFDFB3CCCA
:100C3000B1BBD5BCD3C3A3ACB2BBBDF8C8EBD4A485
:100C4000B6AFCFDFB3CCA1A30D0A00000100002096
:100C5000580000200CED00E00000FA0548000020DC
:100C60001000002030C30008000000203CCAC2CEA3
:100C7000F14944A3BA256C6C753EA3A8322F3134D8
:100C8000A3A9D2D1BEADB6D42564BAC5D0A1B3B59F
:100C9000C9EAC7EBD7AAB9ECD6A1BDF8D0D0BBD86A
:100CA000D3A6A1A30D0A0000ECC2000884C300086B
:100CB000400000203CCAC2CEF14944A3BA256C6C66
:100CC000753EA3A8372F3134A3A9D2D1BEADB6D477
:100CD0002564BAC5D0A1B3B5D2D1BEADC9CFB9ECE8
:100CE000BDF8D0D0BBD8D3A60D0A00004C00002020
:100CF0003CCAC2CEF14944A3BA256C6C753EA3A888
:100D0000455252A3A9CAD5B5BD2564BAC5D0A1B371
:100D1000B5D2D1BEADC9CFB9ECD6A1A3ACB5ABB2FB
:100D2000BBBDF8D0D0BBD8D3A60D0A003CCAC2CEFA
:100D3000F14944A3BA256C6C753EA3A831322F311A
:100D400034A3A9D2D1BEADBDD3CAD5B5BD202564CB
:100D500020BAC5D0A1B3B5D2D1BEADCFC2B9ECD601
:100D6000A1A3ACCFC2B9ECB5C00000000CC814A060
:100D70000AF04CFE2048006809F0D2FF08E0A08885
:100D8000C0F3072000901D480CC81DA00AF03EFECD
:100D900008E0207A29490870607A4870A07A887043
:100DA00000E000BF0AE02548007838B9012F03D1E0
:100DB000204600F0B5F900E000BF00BFBDE8FE8F9F
:100DC0003CCAC2CEF14944A3BA256C6C753EA3A8B7
:100DD00031332F3134A3A9D2D1BEADB6D42564BAF4
:100DE000C5D0A1B3B5CFC2B9ECD6A1BDF8D0D0BBA8
:100DF000D8D3A60D0A0000005000002010000020EB
:100E00003CCAC2CEF14944A3BA256C6C753EA3A876
:100E1000455252A3A9CAD5B5BD2564BAC5D0A1B360
:100E2000B5D2D1BEADCFC2B9ECD6A1A3ACB5ABB2F1
:100E3000BBBDF8D0D0BBD8D3A60D0A00A8000020B7
:100E4000704700BFFEE700BFFEE700BFFEE700BF40
:100E5000FEE77047704700000CB50020019000903D
:100E60007648006840F480307449086000BF7348D9
:100E7000006800F4003000900198401C0190009838
:100E800018B90198B0F5A04FF1D16C48006800F492
:100E9000003010B10120009001E000200090009887
:100EA000012846D165484030006840F080506349D1
:100EB000403108606248006840F440406049086082
:100EC0005E48083000685D490831086008460068DF
:100ED00040F4004008600846006840F4A0500860F4
:100EE0005848091F0860081F006840F08070091FFB
:100EF000086000BF5148006800F000700028F9D079
:100F000040F20570504908604C480830006820F0F5
:100F100003004A49083108600846006840F00200B2
:100F2000086000BF45480830006800F00C00082841
:100F3000F8D10CBD10B54548006840F47000434935
:100F400008603E48006840F001003C49086000200D
:100F50003A4908310860394800683D490840374936
:100F600008603C48091D0860081F006820F48020C4
:100F7000091F0860002031490C310860FFF76CFF41
:100F80004FF0006031498039086010BD70B5002015
:100F90000022022300240221284D08352D6805F087
:100FA0000C0020B1042806D0082834D107E02A4DCF
:100FB0002A4E356033E02A4D284E35602FE01F4D14
:100FC0002D1D2D68C5F380541C4D2D1D2D6805F079
:100FD0003F0154B1224DB5FBF1F5184E361D366870
:100FE000C6F3881605FB06F209E01B4DB5FBF1F5CB
:100FF000124E361D3668C6F3881605FB06F20F4DF5
:101000002D1D2D68C5F301456D1C6B00B2FBF3F57A
:10101000124E356003E0104D104E356000BF00BF2A
:10102000064D08352D68C5F303150E4E705D0B4D4A
:101030002D68C540094E356070BD00000038024083
:101040000070004008544007003C024088ED00E07A
:10105000FFFFF6FE103000240024F400B40000204E
:1010600000127A00B800002070B505460AF068FC4E
:1010700006461421002005F05CFA0446002C41D0FD
:1010800030460AF061FC1422294620460AF011FE7F
:101090000020A060E060FE480068A060FC4949684C
:1010A000E16008202070204604F0D9FBF8488068F1
:1010B000A060F749C968E16008202070204604F06C
:1010C000CEFBF3480069A060F1494969E16008205E
:1010D0002070204604F0C3FBED488069A060EC4915
:1010E000C969E16008202070204604F0B8FB0AF0CE
:1010F00027FC06462146002005F00BFA30460AF090
:1011000023FC0CE00320E3498870E1484068401C60
:10111000DF4948604FF40071DF4806F091F870BD78
:1011200070B505460AF00CFC06461421002005F0B7
:1011300000FA0446002C2ED030460AF005FC14229A
:10114000294620460AF0B5FD0020A060E060082096
:101150002070D04800782072CE4841786172817842
:10116000A1720179E172C1792173017A61730089F9
:101170000112A173C748C179E173204604F06FFBE7
:101180000AF0DEFB06462146002005F0C2F9304693
:101190000AF0DAFB07E00320BE498870BC484068CB
:1011A000401CBB49486070BD2DE9F04780460AF0FD
:1011B000C7FB81461421002005F0BBF90446002C32
:1011C00044D048460AF0C0FB1422414620460AF0AB
:1011D00070FD0020A060E06008202070002728E05B
:1011E000002622E0002519E0AC4800EB471005EB93
:1011F000860110F8111004F1080000F81510A74836
:1012000000EB471005EB860130F811000212680070
:10121000401C04F108010A54681CC5B2042DE3DB2C
:10122000204604F01CFB701CC6B2012EDADB781CD1
:10123000C7B2042FD4DB0AF083FB8146214600208D
:1012400005F067F948460AF07FFB0CE0032091495E
:1012500088708F484068401C8D4948604FF4007189
:101260008D4805F0EDFFBDE8F08770B505460AF042
:1012700067FB06461421002005F05BF90446002CAC
:1012800030D030460AF060FB142120460AF06DFD94
:101290001422294620460AF00CFD0020A060E060E0
:1012A000082020707E48007820727D480088010A5E
:1012B00061727B480068010CA17279480068010ED8
:1012C000E172784801782173204604F0C8FA0AF0E8
:1012D00037FB06462146002005F01BF930460AF090
:1012E00033FB0CE003206B49887069484068401C60
:1012F000674948604FF40071674805F0A1FF70BD71
:101300002DE9F04105460AF01BFB07461421002099
:1013100005F00FF904469CB338460AF015FB14217A
:1013200020460AF022FD1422294620460AF0C1FC7C
:10133000E07A0106A07A01EB0041607A01EB00201F
:10134000217A46185648006886420BD00AF0F8FA0F
:1013500007462146002005F0DCF838460AF0F4FA8A
:10136000BDE8F081207B4F4908700AF0E9FA074692
:101370002146002005F0CDF838460AF0E5FA0DE0E8
:10138000FFE703204349887041484068401C4049BA
:1013900048604FF40071404805F052FF00BFDFE79E
:1013A00070B505460AF0CCFA06461421002005F077
:1013B000C0F80446E4B130460AF0C6FA14222946C1
:1013C00020460AF076FC0020A060E060012020703A
:1013D000354800782072204604F041FA0AF0B0FA4D
:1013E00006462146002005F094F830460AF0ACFA93
:1013F00070BD70B505460AF0A3FA06461421002018
:1014000005F097F80446DCB130460AF09DFA142145
:1014100020460AF0AAFC1422294620460AF049FC7C
:101420000020A060E060207A1F4908700AF088FA66
:1014300006462146002005F06CF830460AF084FA92
:1014400070BD70B505460AF07BFA064614210020EF
:1014500005F06FF80446002C53D030460AF074FAB9
:10146000142120460AF081FC1422294620460AF065
:1014700020FC0020A060E0600C48007820720B493E
:101480004968C4F809100021A4F80D10E1730FE0B9
:1014900020000020A8000020001402409402002038
:1014A00004000020080000204200002094030020D7
:1014B00008202070204604F0D2F90020A060E060EF
:1014C000FE49D1E90201C4E902010820207020464A
:1014D00004F0C5F90020A060E060F849D1E90401FA
:1014E000C4E9020108202070204604F0B8F90AF08F
:1014F00027FA06462146002005F00BF830460AF090
:1015000023FA70BD01460868ED4A10601046006875
:10151000704702461160704710B50021002200207C
:1015200016E0E84B03EB411333F810304FF6FF742D
:10153000A3420BD0E34B03EB411333F8103093423B
:1015400004DDE04B03EB411333F81020431CD8B209
:101550001028E6DBDC4B1A804FF6FF72002016E005
:10156000D84B03EB411333F810304FF6FF74A3420E
:101570000BD0D44B03EB411333F81030934204DA11
:10158000D04B03EB411333F81020431CD8B2102882
:10159000E6DBCE4B1A8010BD38B9CD4A928A0123C2
:1015A0008B409A43CA4B9A821EE0012807D1C84A51
:1015B000D28A01238B409A43C54BDA8214E0022879
:1015C00007D1C34A128B01238B409A43C04B1A8325
:1015D0000AE0032807D1BE4A538B01228A40934375
:1015E000BB4A538300E0704700BFFCE738B9B84AF4
:1015F000928A01238B401A43B54B9A821FE001283F
:1016000007D1B34AD28A01238B401A43B04BDA8206
:1016100015E0022807D1AE4A128B01238B401A43F2
:10162000AB4B1A830BE0032808D1A94A538B012244
:101630008A4013439AB2A64B5A8300E0704700BF1A
:10164000FCE72DE9F84F4FF00008C146A148D0F85B
:1016500000809F48C08800285ED09D48C7881F2F03
:1016600018D19D480078012805D11F22012114209E
:1016700002F07BFD04E01F220021142002F075FD22
:101680006A4600219548006809F09BFA00209049BD
:10169000C88041E007F11F00B8B98F48007828B929
:1016A0001F220121142002F060FD04E01F2200210E
:1016B000142002F05AFD6A4600218848006809F0AB
:1016C00080FA00208249C88026E00AF039F9824673
:1016D0001421002004F02DFF0546EDB150460AF01C
:1016E00033F9142128460AF040FB7D4868602F72C8
:1016F000390A697200202861284602F059F8002052
:101700007349C8800AF01CF982462946002004F07B
:1017100000FF50460AF018F96D4800894FF6FF7136
:1017200088422CD00AF00CF982461421002004F0E3
:1017300000FF054650460AF007F905B31421284674
:101740000AF013FB6648801E68606148007A2872C0
:101750005F4800890112697200202861284602F062
:1017600027F84FF6FF705A4908810AF0E9F88246D7
:101770002946002004F0CDFE50460AF0E5F8544812
:1017800040894FF6FF71884225D00AF0D9F8824689
:101790001421002004F0CDFE0546E5B150460AF0C4
:1017A000D3F8142128460AF0E0FA4D48401E68603C
:1017B00000202861284601F0FBFF4FF6FF704449E6
:1017C00048810AF0BDF882462946002004F0A1FEB7
:1017D00050460AF0B9F83E48808978B94148C07946
:1017E000C0F3400018B940480078012802D1002019
:1017F0003E4908704FF6FF7035498881344880892A
:10180000012826D109E0D8F81090D9F81000C8F8BE
:1018100010004946002004F07CFED8F81000002893
:10182000F1D12C48D0F800802E48C079C0F3400098
:1018300018B92D480078012802D100202B490870E2
:101840004FF6FF702249888129480088C01C28492A
:1018500008801F488089022812D1C102254805F05E
:10186000EDFC642300221146104609F0E1FE4FF41E
:101870008051204805F0E4FC4FF6FF701449888140
:1018800013488089032806D101201B4908704FF6B0
:10189000FF700F4988810E488089042809D11748B4
:1018A0000078C0F10100154908704FF6FF70084933
:1018B000888107488089052829D121E094030020E8
:1018C000C800002094020020180000201A00002008
:1018D00000020020D0000020ED000020E4000020E5
:1018E0001202FE04A80000201D00002001000020BC
:1018F000D0010020000802400A000020D30100208F
:101900000020FD4908704FF6FF70FC498881FB48B4
:101910008089062873D1FA48007800286BD0F848EF
:101920000078022867D0F6480078032847D10121C3
:10193000880605F0EEFE962300221146104609F0B7
:1019400077FE09F0FDFF82461421002004F0F1FD2E
:101950000446504609F0F8FF142120460AF005FA23
:1019600000202070606820F0FF006060606820F454
:101970007F406060606820F47F006060606820F0F5
:1019800080706060606820F000706060606820F0C7
:1019900080606060606820F000606060606820F0D7
:1019A00080506060204603F05AFF09F0C9FF82466C
:1019B0002146002004F0ADFD504609F0C5FFD04897
:1019C0000078022812D009F0BBFF824604210020D3
:1019D00004F0AFFD0646504609F0B6FF36B10120CF
:1019E00030603146C748006808F0CAFC4FF6FF7007
:1019F000C249888103E04FF6FF70C0498881BF4823
:101A00008089072873D1BE48007801286BD0BC4874
:101A10000078022867D0BA480078032847D101210E
:101A2000880605F076FE962300221146104609F03E
:101A3000FFFD09F085FF82461421002004F079FDA6
:101A40000446504609F080FF142120460AF08DF923
:101A500000202070606820F0FF006060606820F463
:101A60007F406060606820F47F006060606820F004
:101A700080706060606820F000706060606820F0D6
:101A800080606060606820F000606060606820F0E6
:101A900080506060204603F0E2FE09F051FF82466C
:101AA0002146002004F035FD504609F04DFF9448D2
:101AB0000078022812D009F043FF8246042100205A
:101AC00004F037FD0646504609F03EFF36B10220CD
:101AD000306031468B48006808F052FC4FF6FF70CA
:101AE0008649888103E04FF6FF70844988818348E6
:101AF0008089082827D18248007803281FD0804891
:101B00000078022813D009F01BFF82460421002030
:101B100004F00FFD0646504609F016FF56B10420AA
:101B2000306031467748006808F02AFC02E0032064
:101B3000734908704FF6FF707049888103E04FF6D3
:101B4000FF706E4988816D48C08920BB09F0F8FE9E
:101B500082461421002004F0ECFC0546DDB150461D
:101B600009F0F2FE142128460AF0FFF86648686082
:101B700000202861284601F01BFE4FF6FF705F49E8
:101B8000C88109F0DDFE82462946002004F0C1FC30
:101B9000504609F0D9FE5948C089012805D102F004
:101BA000F9F84FF6FF705549C8815448C08902289A
:101BB00006D1002002F0EEF84FF6FF704F49C881C1
:101BC0004E48008A4FF6FF7188423FD04B48008A4A
:101BD00000124E4901EB40104849097C30F81100D1
:101BE0004FF6FF71884216D1454801894348008A63
:101BF0000012464A02EB4010404A127C20F81210B4
:101C00003E48008A3E4988803C4A117C128A101264
:101C1000FFF7ECFC11E04FF6FF713848008A001224
:101C20003A4A02EB4010354A127C20F81210334A2F
:101C3000117C128A1012FFF7AFFC4FF6FF702F498C
:101C4000088233480088401C314908802B48408A6C
:101C500001280FD180222F492C4809F0E5FF01F01F
:101C6000ABFA4FF6FF702549488229480088401C8E
:101C7000274908802148408A022810D14FF6FF7278
:101C8000802122480AF047F801F096FA4FF6FF70DB
:101C90001A4948821E480088401C1D490880174880
:101CA000408A98B9802219491A4809F0BDFF02F00C
:101CB00003F84FF6FF701149488215480088401C10
:101CC0001349088001F078FAFFF726FC0B48808C56
:101CD000D8B30A48808C012822D14FF4FA720E48FA
:101CE0000178C82002F041FA6A464FF47A710B4835
:101CF000006808F066FF25E00A00002000020020CE
:101D0000A80000205C0000202202FE041403002032
:101D1000D001002094020020EF000020E400002009
:101D2000DF48808C02280DD14FF4FA72DD4801782B
:101D3000C82002F01AFA6A464FF47A71DA4800684D
:101D400008F03FFF0020D6498884D548808D4FF6A3
:101D5000FF71884213D0D24890F82C00D349087004
:101D6000012242F20401D14804F05AFA4FF6FF7002
:101D7000CB498885CE480088401CCD490880BDE805
:101D8000F88FCC48007840B1CB480068006920B19A
:101D9000C848C079C0F3400008B100207047012056
:101DA000FCE72DE9F0410026002543E000253EE058
:101DB000C24800EB461030F815004FF6FF7188421C
:101DC0002FD009F0BDFD07461421002004F0B1FB1F
:101DD0000446FCB1384609F0B7FD1421204609F04D
:101DE000C4FFB74860602572311261720020206123
:101DF000204601F0DDFC09F0A3FD07462146002046
:101E000004F087FB384609F09FFDA548C08C401CB4
:101E1000A349C88442F2107300221146104609F00B
:101E200007FCA448807800B103E0681CC5B2102DFF
:101E3000BEDB00BFA3480078012803D19D4880780D
:101E40000028B3D0BDE8F08170B509F079FD0646F1
:101E50001421002004F06DFB0446304609F074FDA7
:101E600044B1002020610320A070002060709448DD
:101E7000401CA06009F05BFCE0608F4805682C61A5
:101E80000020206170BD10B54FF6FF72002111E0F7
:101E90008A4B33F811304FF6FF74A34208D0874BBA
:101EA00033F81130934203DA844B33F8112008469B
:101EB0004B1CD9B21029EBDB10BD2DE9F8430646C7
:101EC000002500277C480568002409F039FD80467C
:101ED0001421002004F02DFB0446404609F034FD97
:101EE0001421204609F041FF002E3FD171480078AF
:101EF00000283BD06F480078022837D0012020709E
:101F00006A480078704941EA004060600020207211
:101F100020612146012003F071FB6A4600216B48D5
:101F2000006808F04EFE9DF8000000281DD16149B0
:101F300008700CE02F693869286109F001FD8046BE
:101F40003946002004F0E5FA404609F0FDFC286916
:101F50000028EFD1584805685648C079C0F34000C2
:101F6000002802D000205A4908708BE0032E48D187
:101F700050480078032844D0012020704B48007856
:101F8000514941EA00406060032020720020206136
:101F90002146012003F032FB6A4600214B480068CD
:101FA00008F00FFE9DF8000000286BD10320414986
:101FB0000870962300221146104609F039FB0021D3
:101FC0004FF0806005F0A5FB0CE02F6938692861AF
:101FD00009F0B6FC80463946002004F09AFA4046E3
:101FE00009F0B2FC28690028EFD133480568314870
:101FF000C079C0F34000002844D000203449087064
:1020000040E0012E3ED12B48007801283AD02948E3
:102010000078022836D001202070244800782A4910
:1020200041EA0040606001202072002020612146CA
:10203000012003F0E3FA6A4600212448006808F012
:10204000C0FD9DF80000E8B901201A4908700CE0B5
:102050002F693869286109F073FC804639460020F1
:1020600004F057FA404609F06FFC28690028EFD1C8
:10207000114805680F48C079C0F3400010B1002036
:102080001349087009F05CFC80462146002004F0EA
:1020900040FA404609F058FC06480078BDE8F8834D
:1020A00000020020EE000020E400002008000020D4
:1020B000D0010020A8000020D000002094020020C1
:1020C0001002FE040A000020FB0200045800002059
:1020D0000100002008B50020009000BF0AE06A4619
:1020E00000215848006808F06CFD5748016800203E
:1020F00002F0CCFEF3E708B50020009000BF0AE034
:102100006A4600215148006808F05BFD4E4841686E
:10211000012002F0BBFEF3E708B50020009000BFED
:102120000AE06A4600214A48006808F04AFD49482A
:102130000168002003F07EF8F3E708B50020009066
:1021400000BF0AE06A4600214348006808F039FDF4
:1021500040484168012003F06DF8F3E708B500201E
:10216000009000BF0AE06A4600213C48006808F081
:1021700028FD3B480168002003F033F9F3E708B578
:102180000020009000BF0AE06A4600213548006840
:1021900008F017FD32484168012003F022F9F3E707
:1021A00008B500240020009021E06A4600212E4856
:1021B000006808F006FD15E02C490968086903F07D
:1021C00055FA2A48006804692849206909680861A5
:1021D00009F0B6FB05462146002004F09AF928468E
:1021E00009F0B2FB2148006800690028E4D1DCE76F
:1021F00008B5002400BF0020009021E06A460021BD
:102200001B48006808F0DDFC15E01A4909680869F8
:1022100003F063FA174800680469164920690968E1
:10222000086109F08DFB05462146002004F071F994
:10223000284609F089FB0F48006800690028E4D1AE
:10224000DCE7000060000020F800002064000020AF
:1022500068000020080100206C00002070000020B1
:1022600000010020740000208C00002010010020DC
:10227000900000201401002000BF22E04FF4007104
:10228000174804F0DDFF4FF4C873002211461046D2
:1022900009F0CEF94FF40071114804F0CFFF4FF46C
:1022A000167300221146104609F0C2F90D48007855
:1022B000012804D00B4801780BA009F0A7FBFFF719
:1022C00070FDDBE700BF09E003F002FD03F036FB21
:1022D0000A2300221146104609F0AAF9F4E700008B
:1022E00000140240A80000205472616E73537461A0
:1022F0007475732E4465766963654D6F64653D251D
:10230000640D0A0008B500BF73E06A460021FE486C
:10231000006807F07AFF0446E07A0106A07A01EB34
:102320000041607A01EB0020217A4518EE0F002D64
:1023300002DAE843471C00E02F46F4480078012801
:1023400003D1C6F10100C6B203E0F048007800B93D
:1023500000BF3A463146642001F007FF6A464FF459
:102360007A71EB48006808F02CFC9DF800000A2800
:1023700031D10120E74908706220E7498870C6F131
:102380000100C1B24FF47A72C82001F0EEFE6A4635
:102390004FF47A71DE48006808F013FC9DF80000E5
:1023A00018B16420DC49887005E04FF47A72314638
:1023B000C82001F0DAFE6A460021D548006808F01E
:1023C00000FC0020D4498870D2490870D3480068C6
:1023D00008F0A6FC03E0D148006808F0A1FC09F071
:1023E000AFFA80462146002004F093F8404609F0F9
:1023F000ABFA8AE708B500BF9EE16A460021C848EB
:10240000006808F049F9044609F09AFA8346142155
:10241000002004F08EF80546584609F095FA14217C
:10242000284609F0A2FC2079102854D1217A607A3C
:1024300041EA0029217A002001F0AEF809F0FF01FD
:1024400088422CD1B7480088401CB6490880606893
:10245000C0F30740B449097888420BD101202870A5
:102460006068686055202872002028612946012094
:1024700003F0C4F809F064FA83462946002004F00A
:1024800048F82146002004F044F8584609F05CFA68
:10249000A148C07920F002009F49C8714CE1352065
:1024A000207201202070204603F0D9F909F048FA83
:1024B00083462946002004F02CF82146002004F031
:1024C00028F8584609F040FA9348C07920F00200F5
:1024D0009149C87130E12079112829D1012000F0FB
:1024E00091FF6068C0F307408F49097888420AD19C
:1024F00001202870606868600020287228612946E1
:10250000012003F07BF809F01BFA834629460020DE
:1025100003F0FFFF2146002003F0FBFF584609F0BF
:1025200013FA7D48C07920F002007B49C87103E1AD
:10253000A088C0F30720022867D12079222864D11F
:102540004FF0000A0027012000F05CFF00BF0BE005
:10255000764800EB4A1030F817004FF6FF718842BA
:1025600000D0B846781CC7B2102FF1DB6F48008846
:102570004FF6FF71884201D0002600E00126414657
:10258000002001F009F840453ED13146002001F01D
:1025900003F8B04224D16068C0F30740624909786B
:1025A00088421DD108202870606868605A48007809
:1025B00028725948417869728178A9720179E97263
:1025C000C1792973017A697300890112A97352488C
:1025D000C179E973002028612946012003F00EF833
:1025E00009F0AEF983462946002003F092FF214608
:1025F000002003F08EFF584609F0A6F94648C0793E
:1026000020F002004449C87196E02079122869D16F
:102610006068C0F30070002864D1217A607A01EB11
:102620000020012815D139480078012805D11E2243
:102630000121C82001F099FD04E01E220021C820DC
:1026400001F093FD6A4600213148006808F0B9FAAC
:1026500027E0217A607A01EB002000B2401CA8B983
:102660002A480078012805D11E220021C82001F047
:102670007CFD04E01E220121C82001F076FD6A469F
:1026800000212348006808F09CFA0AE021461E4811
:10269000006807F075FE6A4600212048006808F0CF
:1026A00090FA6068C0F307401F49097888420AD150
:1026B000012028706068686000202872286129461F
:1026C000012002F09BFF09F03BF9834629460020D8
:1026D00003F01FFF2146002003F01BFF584609F0BE
:1026E00033F929E035202072204603F0B8F809F0CC
:1026F00027F983462146002003F00BFF584609F0D6
:1027000023F90548C07913E0A4000020ED00002063
:10271000E4000020D2010020A8000020E8000020F2
:1027200044000020D0010020080000209402002076
:1027300020F002000149C8715FE60000A8000020F7
:102740001CB5002400BF4FF6FF7B00BFC1E0142181
:10275000002003F0EEFE0446002C7CD001AA0021EC
:10276000FE48006807F051FD04461421002003F0E4
:10277000E0FE05464FF0FF0A4FF6FF7B00261FE004
:10278000F74800EB4610E17830F811004FF6FF7182
:10279000884213D0F24901EB4611E27831F8121069
:1027A000F04A1289881A002801DB014600E0414204
:1027B0001FFA81F8D84501DAC346B246701CC6B28A
:1027C000042EDDDBBAF1FF0F14D109F0B9F8009047
:1027D0002946002003F09DFE2146002003F099FECB
:1027E000009809F0B1F8DF48C07920F00200DD4917
:1027F000C8716EE0E178DCA009F008F9E178504694
:1028000000F0CAFE0746E178E0A009F0FFF83912AF
:10281000002001F094FA07F0FF09E07848452AD13A
:10282000E1480088401CE04908801421284609F04E
:102830009CFAA06868600120287000202872286136
:102840002946012002F0DAFEC648C07920F00200D5
:10285000C449C87100E025E009F072F800902946EB
:10286000002003F056FE2146002003F052FE00989F
:1028700009F06AF82CE03520BA498870CB484068E6
:10288000401CCA49486009F05BF8009029460020C6
:1028900003F03FFE2146002003F03BFE009809F0C4
:1028A00053F815E00320AF498870C0484068401CC9
:1028B000BE49486009F044F800902946002003F022
:1028C00028FE2146002003F024FE009809F03CF881
:1028D00000BF3CE708B54FF0000A002600BF09F032
:1028E0002FF883461421002003F023FE06465846A5
:1028F00009F02AF898E090E00024AD4804684FF011
:1029000000084FF0FF090027002570E0206980785B
:10291000022837D1002533E0914800EB45102169AA
:10292000C97830F811008E4901EB451122691279FE
:1029300031F81210884221D1894800EB45102169F5
:10294000C97830F8110087490989884216D184482E
:1029500000EB45102169C97830F811004FF6FF717E
:1029600088420BD07E4800EB45102169097930F888
:1029700011004FF6FF71884200D0A946681CC5B20D
:10298000042DC9DBB9F1FF0F22D04946002001F028
:10299000D6F91421304609F0E8F902203070206998
:1029A000007800048349097840EA012040F01300D0
:1029B00040F0A05070602069C07830720020306113
:1029C0003146012002F01AFE4FF0FF09781CC7B211
:1029D000D4F81080D8F81000206108F0B1FF8346C9
:1029E0004146002003F095FD584608F0ADFF2069F0
:1029F00000288BD1781CC7B20CE06A4600216E48D3
:102A0000006808F0DEF89AF80410012001F097F948
:102A1000781EC7B2002FF0D100BF5248C07900F035
:102A20003C0000287FF468AF65E78AB0002006907C
:102A3000834600254FF6FF700590002400270026EE
:102A40004FF0000857E21421002003F072FD074602
:102A50001421002003F06DFD064609AA0021574805
:102A6000006807F0D2FB04464FF6FF700590002087
:102A700002903C48C07920F00200801C3949C8719E
:102A800000253BE0364800EB4510E17830F81100B6
:102A9000334901EB4511227931F8121088422BD1CC
:102AA0002F4800EB4510E17830F811004FF6FF7128
:102AB000884221D02A4800EB4510217930F81100D6
:102AC0004FF6FF71884217D001200290244901EB94
:102AD0004511227931F81210224A1289881A0028E9
:102AE00001DB014600E041421FFA81FA0598824568
:102AF00002DACDF814A00495681CC5B2042DC1DB20
:102B00000298002877D14FF6FF7005901548C079DC
:102B100020F0400040301349C871002578E010488B
:102B200000EB4510E17830F811004FF6FF71884254
:102B30006CD00B4800EB4510217930F811004FF6AE
:102B4000FF71884262D0064A02EB4512237932F8BF
:102B50001320034B03EB451332E00000DC000020A0
:102B600094020020A8000020BDF8C8EBD4A4B6AFA2
:102B7000CFDFB3CCA3ACD4A4B6AFB5BD20256420C1
:102B8000BAC5B9ECB5C0A1A30D0A0000D4A4B6AF74
:102B9000B5BD20256420BAC5B9ECB5C0B3C9B9A686
:102BA000A3A10D0A00000000D00100202000002099
:102BB000D00000200800002050000020D800002095
:102BC00094F803C033F81C30D11A002901DB0A46FF
:102BD00000E04A42F04B03EB451394F803C033F88E
:102BE0001C30DFF8B8C3BCF808C0ACEB0300002809
:102BF00002DB034601E01BE143421A441FFA82FA5A
:102C00000598824502DACDF814A00495681CC5B277
:102C1000042D84DBE078E2490978CDE90010E14831
:102C20000CC8E14808F0F2FEE178049800F0B4FC2A
:102C3000814609F0FF000690E178069881424ED166
:102C4000E078D7490978CDE90010D6480CC8D7A05C
:102C500008F0DCFE1421384609F087F802203870AD
:102C600020780004CE49097840EA012040F01100A4
:102C700040F0A0507860E0783872217979720020B5
:102C800038613946012002F0B9FCE178002001F0FA
:102C900056F820780090C3480CC8D2A008F0B6FEC1
:102CA00008AA0021DB48006807F0AFFA079006E0A9
:102CB00008AA0021D748006807F0A7FA07900798EC
:102CC000007821788842F3D120780090B5480CC86C
:102CD000D1A008F09BFEE178012001F030F82079C6
:102CE000AF490978CDE90010AE480CC8D74808F0C4
:102CF0008DFE2179049800F04FFC814609F0FF0B0E
:102D00002079584578D12079A5490978CDE9001076
:102D1000A4480CC8CEA008F079FE1421304609F072
:102D200024F802203070207800049D49097840EA98
:102D3000012040F0130040F0A0507060E078307245
:102D4000002030613146012002F058FC217900203A
:102D500000F0F5FF1421002003F0EBFB8046142166
:102D6000404609F002F8012088F800008C480078FD
:102D70004FF0806141EA004040F4007040F02100D3
:102D8000C8F80400207888F808000020C8F810006F
:102D90004146012002F032FC2078009081480CC8A6
:102DA000B9A008F033FE08AA40F6B831C14800685F
:102DB00007F007FF9DF8200040B9207800900190AF
:102DC00078480CC8BCA008F021FE06E020780090EE
:102DD00074480CC8C84808F019FE2179012000F099
:102DE000AEFF6E48C07920F040006C49C8710846BB
:102DF000C07920F00200C87108F0A2FD039041469E
:102E0000002003F086FB3146002003F082FB3946A8
:102E1000002003F07EFB2146002003F07AFB03989C
:102E200008F092FD0020B5490870B54908704FE0E0
:102E30002179049800F0B0FB81464FEA2921002057
:102E400000F07DFF09F0FF0B207958452ED11421A9
:102E5000304608F08AFF0220307020780004504984
:102E6000097840EA012040F0130040F0A050706063
:102E7000E0783072002030613146012002F0BEFB64
:102E800008AA00218B48006807F09BFE4FEA292121
:102E9000012000F054FF4148C07920F040003F4934
:102EA000C8710846C07920F00200C87108F048FDDA
:102EB00003903146002003F02CFB3946002003F03C
:102EC00028FB2146002003F024FB039808F03CFD7A
:102ED00008F036FD03903146002003F01AFB394616
:102EE000002003F016FB2146002003F012FB03989C
:102EF00008F02AFD00BFA6E500BF21E005E00A2397
:102F000000221146104608F093FB7E4800680069D5
:102F10000028F4D02148C079C0F340000028EED149
:102F20001E48C079C0F380100028E8D10A2300228F
:102F30001146104608F07CFB7248006800F03AFD2C
:102F4000DCE700BF27E07048007800281DDD0A2379
:102F500000221146104608F06BFB6C48006800F038
:102F6000020028B900206A4908706749087012E019
:102F70006648006800F0020002280CD10120644974
:102F8000087000206049087005E005230022114602
:102F9000104608F04DFBD6E794020020A800002060
:102FA000080000201000002028C400083CCAC2CE3F
:102FB000F14944A3BA256C6C753EA3A8342F313473
:102FC000A3A92564BAC5D7AAB9ECC6F7D7AAD2C6B1
:102FD000B5BD2564BAC5B9ECB5C0B3C9B9A6A3A13E
:102FE0000D0A00003CCAC2CEF14944A3BA256C6C5C
:102FF000753EA3A8352F3134A3A9CDA8D6AA256440
:10300000BAC5D0A1B3B5C9CFB9ECB5C0A3A10D0A5B
:10301000000000004C0000203CCAC2CEF14944A38D
:10302000BA256C6C753EA3A8382F3134A3A925644A
:10303000BAC5D0A1B3B5C9CFB9ECB5C0D2D1BEAD78
:10304000CDEAB3C9A3A10D0A000000006CC40008BA
:103050003CCAC2CEF14944A3BA256C6C753EA3A804
:1030600031302F3134A3A92564BAC5D7AAB9ECC62B
:10307000F7D7AAD2C6B5BD2564BAC5B9ECB5C0B3F9
:10308000C9B9A6A3A10D0A003CCAC2CEF14944A306
:10309000BA256C6C753EA3A831312F3134A3A9CD6C
:1030A000A8D6AA2564BAC5D0A1B3B5CFC2B9EC0DD4
:1030B0000A000000500000203CCAC2CEF14944A3DF
:1030C000BA256C6C753EA3A831342F3134A3A925E1
:1030D00064BAC5D0A1B3B5CFC2B9ECB3C9B9A6A380
:1030E000AC2564BAC5D0A1B3B5C1F7B3CCBDE1CAB4
:1030F000F80D0A0D0A0D0A00CCC30008400000209C
:1031000000000020D00000204100002010040240F8
:103110000300002000BF4BE0264800780A2841D178
:1031200008F00EFC05461421002003F002FA0446C4
:10313000284608F009FC1421204608F016FE00205D
:103140002070606820F0FF006060606820F47F40BD
:103150006060606820F47F006060606820F08070CC
:103160006060606820F000706060606820F08060DF
:103170006060606820F000606060606820F08050EF
:103180006060204602F06BFB00200A49087008F0DE
:10319000D7FB05462146002003F0BBF9284608F07E
:1031A000D3FB05E0142300221146104608F040FA34
:1031B000B2E70000FD01002010B500200021002230
:1031C0004B4B9A82DA821A835A8300BF1EE0002199
:1031D00018E0484A02EB401232F811204FF6FF7314
:1031E0009A420DD000F10A02414B33F8122001231C
:1031F0008B401A4393B200F10A023D4C24F812307E
:103200004A1CD1B21029E4DB421CD0B20428DEDB18
:1032100010BD10B5002000210022354B9A83DA83BF
:103220001A845A8400BF1EE0002118E0324A02EBE3
:10323000401232F811204FF6FF739A420DD000F180
:103240000E022B4B33F8122001238B401A4393B20A
:1032500000F10E02264C24F812304A1CD1B210297B
:10326000E4DB421CD0B20428DEDB10BD0020234A80
:10327000116802E00969421C90B20A69002AF9D17A
:10328000704708B5002400BF31E06A4600211C48A1
:10329000006807F096FC1B4800891549088019480A
:1032A00080884880174800788880164840780885CC
:1032B00014488078488514480078C885FFF7D6FF01
:1032C0000B490886002003F08DF809494886FFF76E
:1032D000A0FF03F091FCFEF7B4F9601CC4B2042C0B
:1032E00005D10A488088401C084988800024CCE722
:1032F000000200201403002094020020D0000020CF
:10330000CC000020A8000020080000200C070020AE
:103310003249097801703149497841702F498978DB
:1033200081702E490979C1702C49C97901717047A2
:103330001FB500200290039000BF34E06846FFF7FD
:10334000E7FF0522694602A808F042FC38B94FF4AD
:10335000967300221146104608F06AF923E0DDE971
:103360000001CDE9020108F0EBFA05461421002026
:1033700003F0DFF80446284608F0E6FA4CB1184896
:10338000007840F2012141EA004060602046FDF7EC
:10339000C7FE08F0D5FA05462146002003F0B9F82B
:1033A000284608F0D1FAC9E708B500BF15E06A461B
:1033B00000210C48006806F028FF04462178491EC9
:1033C000C8B2FEF77AFD08F0BBFA05462146002098
:1033D00003F09FF8284608F0B7FAE8E7A8000020B5
:1033E000080000205C00002010B51421002003F02C
:1033F000A0F8FE4908600846006810B1002009687E
:10340000086110BD38B504464FF6FF70F849888052
:10341000F848006800F00200C0B9F748007838B9F1
:1034200040F2DC52F5480178642000F09EFE06E090
:1034300040F2DC52F2480178642000F096FE6A46C1
:103440004FF49671EF48006807F0BBFB012218218A
:10345000ED4805F0B9FE24E0E748007818B964208B
:1034600000F059FE02E0642000F02BFEE7480078EF
:1034700050B90120E5490870E5490870002218217B
:10348000E14805F0A1FE10E0D9488078612808D114
:103490006320D749887000221821DB4805F094FE8C
:1034A00038BDDC4800780028D6D100BF6A464FF40A
:1034B0009671D448006807F084FBD548007801284D
:1034C00036D024E0CC48007818B9962000F0F9FDF9
:1034D00002E0962000F01FFECC48007850B9012091
:1034E000CA490870CA49087000221821C64805F068
:1034F0006BFE10E0BE488078612808D16320BC498B
:10350000887000221821C04805F05EFEC8E7C14857
:1035100000780128D6D100BF00221821BA4805F052
:1035200053FE6A464FF49671B648006807F049FBAF
:103530000020B9490870B9480088401CB749088084
:10354000B3480078012808D14FF6FF70A849888059
:103550000120C871002008810AE04FF6FE70A449DE
:1035600088800020088188700120C8710020487080
:10357000012C0BD1A6480078012807D0FEF783FC68
:1035800005462946FF2000F007F803E00020A04987
:10359000087085E700BF83E72DE9F84307460C462E
:1035A00008F0CEF980461421002002F0C2FF054643
:1035B00035B1404608F0C8F91421284608F0D5FB7B
:1035C000974830F814004FF6FF7188420DD108F08B
:1035D000B7F980462946002002F09BFF404608F0DC
:1035E000B3F94FF6FF70BDE8F883FF2F12D0804883
:1035F0000079A0420EDDFEF746FCA04203D08948C8
:103600000078082807DB0020FFF7FCFE0020854932
:10361000087000E00027824800EB471030F81400E3
:1036200073490989461A86B944EA07207049888097
:1036300008F086F980462946002002F06AFF4046DD
:1036400008F082F96A488088CDE7AEB3310EE9729E
:10365000310CA972310A69722E72294672480068CB
:1036600006F08EFE6248C07920F04000403060498C
:10367000C8716A4600216D48006807F0A2FA6448E4
:103680000078012806D1FF20594988800020604930
:10369000087003E044EA07205549888061480078B3
:1036A000401C604908705248C07920F040005049E1
:1036B000C8710846808896E7FFE74D48808892E702
:1036C0002DE9FE4307464FF0FF094FF6FF72082130
:1036D000684608F020FB002417E0514800EB441036
:1036E00030F8170078B14E4901EB441131F817104A
:1036F0003F4A1289881A002801DB014600E0414256
:1037000089B22DF81410601CC4B2042CE5DB00242F
:1037100008E03DF81400484502DA3DF81490A04650
:10372000601CC4B2042CF4DB1421002002F001FF61
:1037300005461421284608F018FB394800EB4810CC
:1037400030F817002A490989461A36B9284887806F
:10375000808840EA0820BDE8FE8326B3310EE97276
:10376000310CA972310A69722E7229462E480068FE
:1037700006F006FE1E48C07920F0400040301C498B
:10378000C87102AA00212948006807F01AFA1848EF
:103790008780C07920F040001549C87108468088AC
:1037A00040EA0820D7E71248808840EA0820D2E79C
:1037B0002DE9F041054608F0C3F8804614210020A9
:1037C00002F0B7FE0446002C76D0404608F0BCF864
:1037D0001421204608F0C9FA287920282FD100208A
:1037E0002061287AE0700120607021E0D000002084
:1037F000A800002010040240ED000020EE00002090
:10380000EF000020E4000020000400400100002040
:10381000020000200300002041000020D001002011
:10382000940200201E000020A4000020E8000020D8
:103830000020A070287A20716868A060A1E0287933
:1038400016283AD1287A00EBD0714910A0EB41013B
:1038500019B9287A401CC7B202E0287A401EC7B2C4
:10386000287AF94901EB401001EB471188420FD14A
:1038700000202061A888000A2070287AE0700020CB
:1038800060700120A070287A20716868A06078E0DC
:1038900000202061A888000A2070287AE0700020AB
:1038A00060700220A070687A2071686820F0FF00C4
:1038B00040F01000A06064E070E02879102813D177
:1038C0006868C0F3007078B100202061A888000A01
:1038D0002070287AE070002060700220A070687A62
:1038E00020716868A0604CE0287911280BD1002075
:1038F00020612879112801D10320A0700020607078
:103900006868A0603DE02879222806D10420A070D4
:10391000002060706868A06033E02879102810D11A
:103920006868C0F3007060B900202061287AE070F8
:10393000687A2071002060700520A0706868A0601F
:103940001FE02879122810D16868C0F3007060B9B0
:1039500000202061287AE070687A20710020607071
:103960000620A0706868A0600BE007F0E9FF8046C1
:103970002146002002F0CDFD404607F0E5FFBDE8FE
:10398000F08107F0D4FEE060B048066800E03669D8
:1039900030690028FBD13461206109E007F0D0FFD5
:1039A00080462146002002F0B4FD404607F0CCFFDF
:1039B00000BFE4E72DE9F0410746002400263C461D
:1039C0002069002870D02069807878B9A0482169E2
:1039D000006806F0D5FC9F48C07920F00200801CEA
:1039E0009C49C8712669306920613BE12069807873
:1039F00001280FD198482169006806F0C1FC95485C
:103A0000C07920F00200801C9249C8712669306993
:103A1000206127E12069807802280FD18F48216931
:103A2000006806F0ADFC8B48C07920F00200801CD5
:103A30008849C87126693069206113E1206980785E
:103A4000032832D107F07CFF80461421002002F0C9
:103A500070FD0546404607F077FF1421284608F020
:103A600084F920698068686029467D48006806F00E
:103A7000DBFE7848C07920F00100401C7549C87110
:103A80000846C07920F00200801CC87126693069A0
:103A9000206107F055FF80463146002002F039FDD5
:103AA000404607F051FFDDE0BEE020698078042841
:103AB00032D107F045FF80461421002002F039FD85
:103AC000054675B1404607F03FFF1421284608F02F
:103AD0004CF920698068686029466148006806F0F2
:103AE000A3FE5C48C07920F00100401C5949C87110
:103AF0000846C07920F00200801CC8712669306930
:103B0000206107F01DFF80463146002002F001FDD4
:103B1000404607F019FFA5E020698078052833D1D9
:103B20004C48C07920F00200801C4A49C87107F057
:103B300007FF80461421002002F0FBFC0546002D03
:103B4000B1D0404607F000FF1421284608F00DF9D7
:103B50002069C078287220690179697220698068BB
:103B6000686029463E48006806F05EFE26693069B6
:103B7000206107F0E5FE80463146002002F0C9FCD6
:103B8000404607F0E1FE6DE02069807806283DD1CF
:103B900007F0D6FE80461421002002F0CAFC05463C
:103BA000002D5FD0404607F0CFFE1421284608F0D4
:103BB000DCF82069C078287220690179697220696F
:103BC0000079C01118B90021A972E97208E02069D2
:103BD00000790121B1EBE01F02D1FF21A972E97246
:103BE00020698068686029461D48006806F01CFE50
:103BF00026693069206107F0A3FE80463146002027
:103C000002F087FC404607F09FFE2BE026693069F2
:103C1000206107F095FE80463146002002F079FCD5
:103C2000404607F091FE1DE026693069206107F0EB
:103C300087FE80463146002002F06BFC404607F0CC
:103C400083FEBDE8F081000094020020D000002037
:103C5000DC000020A8000020D4000020D8000020B4
:103C60004400002000BFECE770B50024002582224C
:103C70000021444802F02EFA00BF19E0002413E0AE
:103C8000680100EB44003F49095C680100EB440017
:103C9000401C3C4A105C01EB00203B4901EB451104
:103CA00021F81400601CC4B2102CE9DB681CC5B2FA
:103CB000042DE3DB012070BD70B5002400258221B6
:103CC000324808F030F800BF1CE0002416E02E480F
:103CD00000EB451010F81400690101EB44012B4A78
:103CE0005054294800EB451030F8140001126801C7
:103CF00000EB4400401C1154601CC4B2102CE6DBE5
:103D0000681CC5B2042DE0DB8021204802F050FE83
:103D100000121E4981F8800080211C4802F048FEF4
:103D20001A4981F8810082220021184802F078FAAD
:103D300082224FF48051154802F072FA70BD10B51E
:103D400002465AB9084601EBD0735C100423A34025
:103D50000F4CE47923430E4CE3710FE0012A0BD1A1
:103D6000084601EBD0735C100423A340084CE479AF
:103D70009C43074BDC7101E0002010BD0448C07972
:103D8000FBE700005604002094020020D40300202A
:103D9000A800002010B50446012C02D1FE4908708D
:103DA00003E014B90020FC49087001225103FA48CD
:103DB00002F036FA10BD30B589B004460D46012137
:103DC000480403F0B7FC0121202003F059FC4020F7
:103DD000049002208DF8140001208DF8170004A92A
:103DE000EE4803F0AFF903220621EC4803F035FA60
:103DF000ADF804500020ADF806000294ADF80C00B8
:103E000001A9E74804F03FFD0020ADF818000220AA
:103E1000ADF81A000120ADF81C000020ADF81E001E
:103E2000ADF8200006A9DE4805F004F90221DC48BF
:103E300005F0F2F901220221D94805F0C5F919204F
:103E40008DF800000B208DF8010000208DF8020095
:103E500001208DF80300684603F083F80121D04863
:103E600004F09AFD09B030BD30B589B004460D4666
:103E70000121080403F05EFC0121102003F000FC86
:103E80002020049002208DF8140001208DF81700E6
:103E900004A9C44803F056F903220521C14803F0E0
:103EA000DCF9ADF804500020ADF806000294ADF83E
:103EB0000C0001A9BC4804F0E6FC0020ADF8180095
:103EC0000220ADF81A000120ADF81C000020ADF86A
:103ED0001E00ADF8200006A9B34805F0ABF802219A
:103EE000B14805F099F900220221AF4805F06CF9BC
:103EF00018208DF800000C208DF8010000208DF8AE
:103F0000020001208DF80300684603F02AF8012121
:103F1000A54804F041FD09B030BD30B589B0044674
:103F20000D460121022003F0F4FB0121022003F0E1
:103F3000A7FB0320049002208DF8140001208DF8C7
:103F4000170004A9994803F0FDF8022200219748C0
:103F500003F083F902220121944803F07EF9ADF8C1
:103F600004500020ADF806000294ADF80C0001A941
:103F70008F4804F088FC0820ADF818000A20ADF83E
:103F80001A000120ADF81C000020ADF81E00ADF8AD
:103F9000200006A9864805F04DF80C20ADF8180061
:103FA0000A20ADF81A000120ADF81C000020ADF881
:103FB0001E00ADF8200006A97D4805F03BF8182149
:103FC0007B4805F029F900221821794805F0FCF812
:103FD0001D208DF800000D208DF8010000208DF8C7
:103FE000020001208DF80300684602F0BAFF0121AB
:103FF0006F4804F0D1FC09B030BD7FB504460D46D2
:104000000121102003F085FBADF804500020ADF82D
:1040100006000294ADF80C0001A9664804F033FCD8
:104020000121644805F0F8F801221146614805F0C5
:10403000CBF801215F4804F0AFFC36208DF800007A
:104040000A208DF8010000208DF8020001208DF873
:104050000300684602F085FF7FBD1CB501214020AA
:1040600003F00EFBC020009001208DF8040000201A
:104070008DF8060003208DF8050001208DF807005B
:1040800069464D4803F05EF80121042003F0F8FA78
:104090004FF44050009001208DF8040000208DF86E
:1040A000060003208DF8050001208DF80700694601
:1040B000424803F047F84FF48051404803F0C0F8FD
:1040C0001CBD38B50446002000903D4908603D49BC
:1040D0000C7001203C49C1F89C020121354804F0D4
:1040E0005BFC6A4600213948006806F06AFD3549E4
:1040F0000C7000203249091D086001212D4804F090
:104100004BFC6A4600213148006806F05AFD012048
:104110002F49087038BD38B50446002000900120B2
:104120002749086027490C702749C1F89C020121E2
:10413000204804F031FC6A4600212448006806F05B
:1041400040FD20490C7000201D49091D0860012117
:10415000184804F021FC6A4600211C48006806F05B
:1041600030FD00201A49087038BD2DE9F047064699
:104170000F46144600254FF064084FF0FF3A4FF603
:10418000FF7014498880464505D9A6EB0800B4FBAA
:10419000F0F04FEA50091FE0ED000020001402404B
:1041A0000044014000100240004001400004024071
:1041B00000040040001000400018024000080240C7
:1041C00098024342EC00002000004342E00000203F
:1041D0001C000020A80000200120714908707148CF
:1041E0000078874229D100BF1EE06F48007818B9D7
:1041F00001206D49087019E0002504E03046FFF702
:1042000060FF681CC5B2022DF8DB6848007828B949
:1042100067480089401C6649088104E064480089B9
:10422000401E63490881641E002CDED100BF0020BF
:104230005B4908700120BDE8F0875E48007887423E
:1042400031D100BF27E05848007828B901205649ED
:1042500008705949087020E0002504E03046FFF757
:104260005AFF681CC5B2022DF8DB5048007828B907
:104270004F480089401E4E49088104E04C4800899F
:10428000401C4B4908814848007818B9012046492C
:10429000087002E0641E002CD5D100BF0020404908
:1042A00008700120C7E70020C5E710B505F00EFC37
:1042B0000121424804F09FFF012815D140480088A1
:1042C000401D3F4908803F4800780988401A02286D
:1042D0000ADC00203A4908800021384804F05CFBE1
:1042E0003948006806F01CFD0121344804F094FFB1
:1042F00005F007FC10BD10B505F0E8FB02213348BE
:1043000004F079FF60B132480068008940B9304854
:10431000006806F005FD2F48C088401C2D49C88064
:1043200003212A4804F078FF05F0EBFB10BD10B51F
:1043300005F0CCFB0221284804F05DFF58B1274866
:1043400000880A30254908806120194988700221B7
:10435000214804F061FF05F0D4FB10BD10B505F055
:10436000B5FB10211E4804F046FF40B11D480078FF
:10437000401C1C4908701021194804F04DFF082109
:10438000174804F038FF40B116480078401C154922
:1043900008700821124804F03FFF05F0B2FB10BD81
:1043A0001D000020EE00002001000020ED00002094
:1043B000A8000020EF0000200200002000100040B4
:1043C000F0000020EC000020E0000020004401404C
:1043D000E40000200C07002000400140D001002034
:1043E0000004004041000020F8B506460F4615467F
:1043F0001C463946304603F0DAFC2946F84803F0FB
:1044000060FD04F0010098B101220221F44804F09B
:1044100038F814208DF8000006208DF801000020E7
:104420008DF8020001208DF80300684602F099FD26
:1044300004F0020098B101221021E94804F021F8AB
:1044400015208DF8000008208DF8010000208DF85F
:10445000020001208DF80300684602F082FD04F09E
:10446000040098B101220221DE4804F00AF840203D
:104470008DF8000007208DF8010000208DF8020063
:1044800001208DF80300684602F06BFD04F008007F
:1044900080B101221021D34803F0F3FF41208DF8B1
:1044A000000009208DF8010000208DF80200012095
:1044B0008DF803000020F8BDF0B52DED028B89B01A
:1044C0000746B0EE408A0E461546002417B1012F6C
:1044D0007DD1A6E00121084603F0D2F8012148066B
:1044E00003F017F94FF4C050079002208DF8200018
:1044F00000208DF8220003208DF8210001208DF886
:10450000230007A9B84802F01DFE09220B21B64876
:1045100002F0A3FE09220C21B34802F09EFE002403
:104520003BE004EB4400B14901EB800090ED000A50
:10453000B4EE480AF1EE10FA2DD100208DF81600E5
:1045400001208DF8170000208DF818008DF8190053
:104550008DF81A008DF81B008DF8126004EB4400F2
:1045600001EB800000798DF8130004EB440001EBAF
:10457000800040798DF8140004EB440001EB8000CA
:1045800080798DF8150004EB440001EB8000008970
:10459000ADF810000E24601CC4B20E2CC1DB05F077
:1045A0000100E8B100208DF80A008DF80B00012011
:1045B0008DF80C000020ADF80000ADF80200ADF859
:1045C0000400ADF80600ADF80800012000E0CDE0E1
:1045D0008DF80D002B466A4604A98148FFF704FFB9
:1045E00005F00200E0B101208DF80A0000208DF8EE
:1045F0000B0001208DF80C000020ADF80000ADF894
:104600000200ADF80400ADF806000120ADF8080086
:104610008DF80D002B466A4604A97148FFF7E4FEA9
:10462000A5E00121022003F02BF80121880603F008
:1046300070F86020079002208DF8200000208DF88F
:10464000220003208DF8210001208DF8230007A906
:10465000674802F077FD09220521654802F0FDFD5B
:1046600009220621624802F0F8FD00243BE004EB39
:1046700044005E4901EB800090ED000AB4EE480A68
:10468000F1EE10FA2DD100208DF8160001208DF8E2
:10469000170000208DF818008DF819008DF81A0009
:1046A0008DF81B008DF8126004EB440001EB8000D4
:1046B00000798DF8130004EB440001EB8000407991
:1046C0008DF8140004EB440001EB800080798DF834
:1046D000150004EB440001EB80000089ADF81000E8
:1046E0000E24601CC4B20E2CC1DB05F00400E0B146
:1046F0000E208DF80A0000208DF80B0001208DF8A7
:104700000C000020ADF80000ADF80200ADF8040088
:10471000ADF80600ADF8080001208DF80D002B461D
:104720006A4604A92F48FFF75FFE05F00800E0B1D4
:1047300003208DF80A0000208DF80B0001208DF871
:104740000C000020ADF80000ADF80200ADF8040048
:10475000ADF806000120ADF808008DF80D002B46DD
:104760006A4604A91F48FFF73FFE00E000BF00BFF4
:1047700009B0BDEC028BF0BD10B5044674B901223E
:1047800000219FED1C0A0846FFF796FE0422002137
:104790009FED180A0120FFF78FFE4EE0012C0ED18D
:1047A00001220021B3EE040A0846FFF785FE042229
:1047B0000021B3EE040A0120FFF77EFE3DE0022C4B
:1047C0001AD101220021B2EE040A0846FFF774FE56
:1047D00004220021B2EE040A0120FFF76DFE2CE056
:1047E00000640040006800400000024024010020F6
:1047F0000004024000004842032C0ED10122002197
:10480000B1EE040A0846FFF757FE04220021B1EE7C
:10481000040A0120FFF750FE0FE0042C0DD1012205
:1048200000219FEDFE0A0846FFF746FE0422002104
:104830009FEDFA0A0120FFF73FFE10BD08B568465C
:1048400002F08FFB01221146F54803F01AFE3F20CB
:104850008DF8000004208DF8010000208DF8020082
:1048600001208DF80300684602F07BFB012211460F
:10487000EC4803F006FE13208DF8000005208DF8AB
:10488000010000208DF8020001208DF80300684629
:1048900002F067FB08BDE449096841F00101E24A02
:1048A000116050B91146096821F47F411160114629
:1048B000096841F4D05111600CE001280AD1DA49AD
:1048C000096821F47F41D84A11601146096841F412
:1048D00080711160D449096821F00101D24A116048
:1048E000704710B51421002001F023FECF49086065
:1048F0000846006810B100200968086114210020F2
:1049000001F017FEC94948600846406810B1002010
:10491000496808611421002001F00BFEC4490860B9
:104920000846006810B100200968086114210020C1
:1049300001F0FFFDBE4948600846406810B1002004
:10494000496808611421002001F0F3FDB9490860AD
:104950000846006810B10020096808611421002091
:1049600001F0E7FDB34948600846406810B10020F7
:10497000496808611421002001F0DBFDAE490860A0
:104980000846006810B10020096808611421002061
:1049900001F0CFFDA94908600846006810B1002069
:1049A0000968086110BD10B500230C782CB90C788B
:1049B00002550C78641C0C7015E005E0C45C944250
:1049C00000D104E05C1CE3B20C789C42F6DC00BF32
:1049D0000C789C4207D10C781E2C04DA0C78025516
:1049E0000C78641C0C7010BD70B505460C46207A1E
:1049F00010B1042828D113E0207AA870607A68707A
:104A0000A07A287020686860A27A04F10B0105F191
:104A1000080007F009F91421204607F0A6F918E06C
:104A2000207AA870607A6870A07A287060686860E0
:104A3000A27A04F10B0105F1080007F0F5F8142142
:104A4000204607F092F904E01421204607F08DF982
:104A500000BF00BF687870BD70B586B005460E46D1
:104A6000144615B1012D4AD118E000216D4803F01C
:104A700070FC10B9002006B070BD01AA0021694881
:104A800003F0E4FB01A92046FFF7AEFF28B914218B
:104A9000204607F06AF90020EDE731E00021604888
:104AA00003F057FC08B90220E5E701AA00215C48A1
:104AB00003F0CCFB9DF80D0002281AD101A9604833
:104AC0000068FFF791FF5E4800684068C0F3074048
:104AD0005C49097888420AD15B48006806F020F9F1
:104AE0005AA006F093FF142101A807F03EF9022016
:104AF000C1E701A92046FFF777FF0020BBE700BF11
:104B000000BF2078B7E730B5002100220023B0B9FC
:104B1000444C18342468210E424C18342468C4F3E1
:104B20000742404C18342468C4F302133D4C183437
:104B3000246844F070043B4D18352C6017E00128C0
:104B400015D1374C18342468210E354C183424689C
:104B5000C4F30742324C18342468C4F30213304CB7
:104B60001834246844F070042D4D18352C6030BD85
:104B70002DE9F04706460D4614461F46DDF8208015
:104B80004FF0000906F0DCFE8246354804720CB98D
:104B9000056003E0042C01D1314845600020304914
:104BA0004872084680F80A80424639460B3007F0C2
:104BB0003BF8504606F0C8FE16B1012E0CD105E0B8
:104BC0002749184803F05CFA814606E02449144856
:104BD00003F056FA814600E000BF00BF4846BDE83A
:104BE000F0872DE9FC4105460C4600200190002D80
:104BF00063D106F0A5FE06461A480078A0BB012046
:104C000018490870304606F09FFE2846FFF77BFFE4
:104C100004481830006800F0040026E00000FA4262
:104C2000006800400064004000660040F80000207A
:104C300000010020080100201001002014010020C4
:104C40000C0000200800002088000020CAD5B5BD57
:104C5000D2BBB8F6D3A6B4F0B0FC0D0A0000000039
:104C6000E4060020CC01002023E0E8B92078009081
:104C7000A27804F1080300206168FFF779FF01AA18
:104C80003221F948006805F0C0FAC7B2042F06D1F6
:104C900000270020F54908700420BDE8FC810020B1
:104CA000F24908700320F8E70020F049087002205C
:104CB000F3E7304606F048FE3EE0012D3CD106F019
:104CC0003FFE0646EA48007890BB0120E84908709C
:104CD000304606F039FE2846FFF715FFE548006824
:104CE00000F00400F8B920780090A27804F10803DD
:104CF00001206168FFF73CFF01AA3221DE4800680D
:104D000005F083FA00F0FF08B8F1040F06D14FF068
:104D100000080020D64908700420BEE70020D449CE
:104D200008700320B9E70020D14908700220B4E7D9
:104D3000FFE7304606F008FE0120AEE72DE9F0411E
:104D400006460D461446002706F0FAFD8046CB487D
:104D500004720CB9056003E0042C01D1C74845601A
:104D60000220C6494872404606F0EEFD16B1012EFB
:104D70000DD105E0C149C24803F082F9074607E0BA
:104D8000BE49BC48183803F07BF9074600E000BF75
:104D900000BF3846BDE8F0812DE9F8430446884657
:104DA000914600200090002C37D106F0C9FD054641
:104DB000B448007868BB0120B2490870284606F064
:104DC000C3FD2046FFF79FFEAD481830006800F095
:104DD0000400C8B94A4641460020FFF7AFFF6A46C3
:104DE0003221A148006805F010FAC6B2042E06D19F
:104DF00000260020A34908700420BDE8F8830020A5
:104E0000A04908700320F8E700209E49087002209E
:104E1000F3E7284606F098FD36E0012C34D106F081
:104E20008FFD05469848007858BB012096490870C8
:104E3000284606F089FD2046FFF765FE8D4800688C
:104E400000F00400C0B94A4641460120FFF776FF52
:104E50006A4632218848006805F0D7F9C7B2042FA6
:104E600005D100270020884908700420C5E70020EC
:104E7000854908700320C0E700208349087002209C
:104E8000BBE7284606F060FD0120B6E72DE9F047B4
:104E900081460D460027002400262C46B9F1000F5C
:104EA00003D0B9F1010F77D159E054E0206940688F
:104EB000C0F3806000B301283DD106F041FD824679
:104EC0001421002001F035FB0646504606F03CFD5B
:104ED0008EB114223046216906F0EBFE6B4804685F
:104EE00000E0246920690028FBD126613061684810
:104EF000006805F015FF1FE006F022FD8246142130
:104F0000002001F016FB0646504606F01DFD8EB14E
:104F100014223046216906F0CCFE5E48046800E0A9
:104F2000246920690028FBD1266130615A48006855
:104F300005F0F6FE00E000BF00BF2C462769386987
:104F4000206106F0FDFC82463946002001F0E1FABE
:104F5000504606F0F9FC20690028A7D1BCE0B5E076
:104F600020694068C0F30070B8B920698088C0F338
:104F700007204A49097888420FD02C4627693869AA
:104F8000206106F0DDFC82463946002001F0C1FABE
:104F9000504606F0D9FC99E09DE020694068C0F3D6
:104FA00007483F480078804502D0B8F1FF0F7FD115
:104FB0003C484088401C3B49488020694068C0F319
:104FC000806000B301283DD106F0BAFC824614216E
:104FD000002001F0AEFA0646504606F0B5FC8EB150
:104FE00014223046216906F064FE2848446800E037
:104FF000246920690028FBD1266130612A480068B5
:1050000005F08EFE1FE006F09BFC82461421002076
:1050100001F08FFA0646504606F096FC8EB1142237
:105020003046216906F045FE1A48446800E02469CC
:1050300020690028FBD1266130611C48006805F01A
:105040006FFE00E000BF00BF2C4627693869206171
:1050500006F076FC82463946002001F05AFA5046A6
:1050600006F072FC32E023E098000020CC01002022
:10507000CD010020186800409C000020F8060020A8
:1050800000640040CE010020CF0100200801002074
:1050900068000020000100207000002009000020AE
:1050A000080000200C0700206C0000207400002085
:1050B0002C4627693869206106F042FC8246394651
:1050C000002001F026FA504606F03EFC2069002838
:1050D0007FF446AF00E000BF00BFBDE8F08730B509
:1050E000039C6060A17023701568A5605568E56039
:1050F00030BD2DE9FC5F05460E461F46DDE90CB4C8
:10510000DDF838804FF00009CA4615B1012D71D184
:1051100042E006F015FC01901421002001F009FA8C
:105120000446019806F010FCA4B3002020615B4601
:105130003A46042130460094FFF7D1FF18E00223DD
:1051400000221146104606F073FA09F101001FFA19
:1051500080F9C1450CDB06F0F3FB019021460020ED
:1051600001F0D7F9019806F0EFFB0020BDE8FC9FA5
:1051700021462846FFF735FD0428E0D106F0E0FB84
:1051800001902146002001F0C4F9019806F0DCFBF3
:105190000120EBE7FFE742E006F0D2FB019014218B
:1051A000002001F0C6F90446019806F0CDFB0CB1D1
:1051B000002020615B463A46042130460094FFF708
:1051C0008EFF18E0022300221146104606F030FA46
:1051D0000AF101001FFA80FAC2450CDB06F0B0FBB1
:1051E00001902146002001F094F9019806F0ACFBF3
:1051F0000020BBE711E021462846FFF7F2FC042817
:10520000E0D106F09DFB01902146002001F081F9DC
:10521000019806F099FB0120A8E70020A6E700BF4F
:105220000020A3E710B503469C0644EA024444EA82
:10523000012010BD2DE9FF5F80460D4600270024A8
:105240002C46B8F1000F03D0B8F1010F67D135E05B
:1052500030E020694068C0F3074A20698088C0F3C5
:10526000072B206906795A4651460120FFF7DAFFDD
:1052700040EA06092069406820F0806021694860A2
:1052800064200821CDE900150290206900F108038F
:10529000042249464046FFF72CFF27693869206100
:1052A00006F04EFB03903946002001F032F90398D6
:1052B00006F04AFB20690028CBD131E02BE02069C1
:1052C000067920694068C0F30740FF2804D14046B2
:1052D0002169FBF7EFFA11E020694068C0F3007024
:1052E00038B100953246494640462369FBF77DFBBD
:1052F00004E02A4640462169FBF7FBFA2769386932
:10530000206106F01DFB03903946002001F001F9F1
:10531000039806F019FB20690028D0D100E000BFF7
:1053200000BFBDE8FF9F2DE9F34F81B00C466068D8
:10533000C0F3007000283AD094F804A06068C0F36D
:105340000748A088C0F307294A4641460020FFF7D6
:1053500069FF40EA0A0040F08056606820F08060F3
:105360006060042231460198FFF716FD0546042DC2
:1053700005D1ED480CC8EDA006F048FB2FE0032D49
:105380000DD1042231460198FFF706FD8346E64819
:10539000CDF800B00CC8EFA006F038FB1FE0022DDE
:1053A0001DD1E1480CC8FAA006F030FB17E0606898
:1053B000C0F3007088B9A088C0F30721676861F363
:1053C0001F27FD480078002101EB0040C619042288
:1053D00031460198FFF7E0FC01E0BDE8FE8F00BF19
:1053E000FBE72DE9F04106460F46002500243C4628
:1053F00016B1012E36D115E010E0F048006805F036
:105400008FFC25692869206106F09AFA80462946B2
:10541000002001F07EF8404606F096FA2069002848
:10542000EBD120E01AE020694068C0F30740FF2874
:1054300004D130462169FBF73DFA02E02069FBF711
:1054400012FA25692869206106F07AFA8046294611
:10545000002001F05EF8404606F076FA2069002848
:10546000E1D100E000BF00BFBDE8F0812DE9F041CF
:1054700000260025002404F029FB06F061FA074607
:105480001421002001F055F804461CB3384606F0FC
:105490005BFA224600210846FFF7DEFA0646002E98
:1054A0000DDDC748056800E02D6928690028FBD19B
:1054B0002C612061C348006805F032FC0DE006F065
:1054C0003FFA07462146002001F023F8384606F04F
:1054D0003BFA02E0384606F037FA04F012FBBDE86A
:1054E000F0812DE9F0410026002404F0EFFA06F0E7
:1054F00027FA07461421002001F01BF80446E4B106
:10550000384606F021FA224600210120FFF7A4FACE
:1055100005466DB9AA48466800E03669306900283A
:10552000FBD134612061A848006805F0F9FB07E071
:105530002146002000F0EDFF02E0384606F004FAB4
:1055400004F0DFFABDE8F08170B501219F4803F057
:1055500000F8012811D19D4808300068C0F34005CB
:105560000DB1042400E0032421469948006804F0AA
:1055700007FF0121954803F086F870BD70B5012141
:10558000944802F0E6FF012816D1924808300068DE
:10559000C0F340050DB1042400E0032421468E48E9
:1055A000006804F0EDFE8D484088401C8B4948801F
:1055B0000121884803F067F870BD704718B90021D1
:1055C000874A11700AE0012803D12821844A11700A
:1055D00004E0022802D15F21814A11707047F0B5C2
:1055E00005AD95E8E010099C22706370A570E67027
:1055F000277184F805C0F0BD704770472DE9F04170
:1056000004460F460026002506F09AF9804614212C
:10561000002000F08EFF05461DB3404606F094F9C9
:1056200014223946284606F044FB14B96D48066832
:1056300003E0012C01D16C48066800E0366930694E
:105640000028FBD13561286124B96848006805F05D
:1056500067FB09E0012C07D16548006805F060FB95
:1056600002E0404606F070F9BDE8F0817FB50446DF
:105670000020039000262FE0C8212078CDE9017199
:10568000009004F10803042200206168FFF731FD57
:10569000054605B97FBD03AA4FF4FA714748006873
:1056A00005F08FFA9DF80C0020B9524800210180C6
:1056B0008170EFE79DF80C000A2808D1701CC6B273
:1056C000032E09DB4B48002101808170E2E7494845
:1056D000002101808170DDE7CEE77FB50446002020
:1056E00003900026A1E04FF4FA712078CDE9017112
:1056F000009004F10803042201206168FFF7F9FC1F
:10570000054605B97FBD03AA4FF4FA713A4800680F
:1057100005F057FA9DF80C0020B9384800210180A7
:105720008170EFE76CE00000100000203CCAC2CEA0
:10573000F14944A3BA256C6C753EB5F7D3C3D3A623
:10574000B4F0D6A1B7A2CBCDBAAFCAFDB3C9B9A642
:105750000D0A00003CCAC2CEF14944A3BA256C6CC4
:10576000753EA3A8455252A3A9B5F7D3C3D3A6B497
:10577000F0D6A1B7A2CBCDBAAFCAFDCAA7B0DCA301
:10578000ACD6D8B7A2B4FAC2EB25640D0A0000006B
:105790003CCAC2CEF14944A3BA256C6C753EB5F73C
:1057A000D3C3D3A6B4F0D6A1B7A2CBCDBAAFCAFDAE
:1057B000B3C9B9A600000000080000208400002042
:1057C000F800002060000020640000200064004019
:1057D00098000020006800409C0000200C0700207A
:1057E000F400002010010020140100208C00002093
:1057F000900000201E0100208800002021010020D0
:105800009DF80C000A280BD1701CC6B2032E0CDBCD
:10581000314800210180817030A006F0F7F871E76F
:105820002D480021018081706CE75CE72DE9E043A1
:10583000814694F804806068C0F30746A088C0F3EE
:1058400007273A4631460020FFF7ECFC40EA0805FE
:10585000606820F0806060602846BDE8E083FEB5A7
:1058600004466068C0F3007088B12046FFF7DEFF91
:1058700040F080556421207804F108030422CDE92A
:105880000181009029460120FFF733FC21E0606888
:10589000C0F30070E0B9002017490870A088C0F379
:1058A0000721666861F31F2614480078002101EB88
:1058B000004085196421207804F108030422CDE911
:1058C0000181009029460120FFF713FC074600E004
:1058D000FEBD00BFFCE7000021010020C4BFB1EA0B
:1058E000D4DAD6D8CAD4BAF3C3BBD3D0BBD8B8B4F1
:1058F000A3A10D0A00000000FD0100200800002007
:105900001CB50121202001F0BBFE4FF480700090F7
:1059100001208DF8040000208DF8060003208DF88A
:10592000050001208DF807006946254801F00AFCB2
:105930004FF48071224801F081FC1CBD10B5214854
:10594000007820B9002020490880204908701E48AE
:105950000088D0B14FF48071194801F06FFCC82362
:1059600000221146104605F063FE4FF48071144882
:1059700001F066FC322300221146104605F058FE65
:1059800011480088401E10490880104800780128FE
:1059900014D101020A4801F051FCC823002211462B
:1059A000104605F045FE4FF48071054801F048FCB3
:1059B000642300221146104605F03AFE10BD000097
:1059C00000140240D3010020D0010020D2010020A9
:1059D0001CB50121202001F053FE0121402001F0DF
:1059E0004FFE4FF46060009001208DF8040000200D
:1059F0008DF8060003208DF8050001208DF80700C2
:105A00006946E24801F09EFB4FF44070009001208F
:105A10008DF8040000208DF8060003208DF80500A5
:105A200001208DF807006946D94801F08BFB4FF43F
:105A30006061D64801F002FC4FF44071D44801F097
:105A4000FDFB1CBD10B50446662C04D0672C08D0A5
:105A50006F2C21D10BE04FF40071CC4801F0EEFB2C
:105A60001BE04FF48061C94801F0E8FB15E04FF4FA
:105A70008061C64801F0E2FB4FF40061C34801F0C9
:105A8000DDFB4FF48071C24801F0D8FB4FF4007188
:105A9000BF4801F0D3FB00E000BF00BF10BD2DE9FF
:105AA000F04107460C4625796679A7F1650005287F
:105AB0007DD2DFE800F003376BA1D500257917E030
:105AC0004FF40071B14801F0BBFB2388002211465E
:105AD000104605F0ADFD4FF40071AC4801F0AEFB8F
