:020000040800F2
:10000000F0B500204D700008550F0008570F00088C
:100010005B0F00085F0F0008630F0008000000007E
:10002000000000000000000000000000670F000852
:10003000690F000800000000C5BA0008E96D00085B
:100040006770000867700008677000086770000834
:100050006770000867700008677000086770000824
:100060006770000867700008677000086770000814
:100070006770000867700008677000086770000804
:100080006770000867700008677000087D560008F8
:10009000A1550008677000086770000867700008C5
:1000A000634400082B44000867700008677000086C
:1000B0007B6A0008914400086770000867700008B8
:1000C00067700008677000086770000867700008B4
:1000D00067700008B56F000867700008E5680008E1
:1000E0006770000867700008677000086770000894
:1000F0006770000867700008677000086770000884
:100100006770000867700008677000086770000873
:100110005969000867700008DF430008DD690008BE
:100120006770000867700008677000086770000853
:10013000677000086770000867700008B156000813
:10014000175600086770000867700008677000089D
:100150006770000867700008677000086770000823
:100160006770000867700008677000086770000813
:100170006770000867700008677000086770000803
:10018000677000086770000800F002F800F069F876
:100190000AA090E8000C82448344AAF10107DA45E2
:1001A00001D100F05EF8AFF2090EBAE80F0013F0CB
:1001B000010F18BFFB1A43F001031847CCC300001E
:1001C000ECC300000A444FF0000C10F8013B13F0A0
:1001D000070408BF10F8014B1D1108BF10F8015BA0
:1001E000641E05D010F8016B641E01F8016BF9D193
:1001F00013F0080F1EBF10F8014BAD1C0C1B09D1EA
:100200006D1E58BF01F801CBFAD505E014F8016B5B
:1002100001F8016B6D1EF9D59142D6D370470000ED
:100220000023002400250026103A28BF78C1FBD8FF
:10023000520728BF30C148BF0B60704703681B0AD4
:1002400028BF41F0800164290BF08684F5290BF06A
:10025000BF84002070471FB50BF04AFF1FBD10B5CB
:1002600010BD0BF013FF1146FFF7F5FF00F01AF871
:100270000BF031FF03B4FFF7F2FF03BC06F03AFEC8
:1002800070B50446002500BF00F090F90BF0F2FBBA
:10029000054600F08EFA04200BF06BF928460BF0AF
:1002A000EDFB70BD10B54FF4407006F0EFFE00F0AE
:1002B00011F800F001F909F08FFC0423044A002131
:1002C000AFF243000AF0DCFE09F0A8FD002010BDEB
:1002D000E006002010B50120FE490870FE480068C5
:1002E000FE4908604720FE49087006204860052046
:1002F0008860FA480068C860FA48086148610220CE
:10030000F9490870FF20F94908704FF6FF72802103
:10031000F7480BF09AFD4FF6FF728021F5480BF07D
:1003200094FDF548C07920F080008030F249C87112
:1003300010BD2DE9F0410BF09DFB80464FF480513C
:10034000002006F090F9064640460BF097FB16B9E0
:100350000020BDE8F0810BF08DFB80464FF480510A
:10036000002006F080F9074640460BF087FB5FB996
:100370000BF080FB80463146002006F064F94046D1
:100380000BF07CFB0020E4E74FF480520021304664
:1003900005F03AFF002505E0705DFF2800D004E07D
:1003A000681C85B2B5F5805FF6DB00BFB5F5805FF0
:1003B00001D10020CDE7002414E04FF48052002149
:1003C000304605F021FF4FF48051304606F04CF8DE
:1003D00000B909E00A230022114610460BF0C2F9C9
:1003E000601CC4B2032CE8DB00BF032C22DA4FF4FC
:1003F00080521146384605F007FF4FF480523946C7
:1004000030460BF07FFC28B14FF480521146304645
:1004100005F0A0FF0BF02EFB80463146002006F0D1
:1004200012F93946002006F00EF940460BF026FB83
:1004300001208EE7002414E04FF480521146384624
:1004400005F0E2FE4FF48051384606F00DF800B991
:1004500009E00A230022114610460BF083F9601CC4
:10046000C4B2032CE8DB00BF032C15DA4FF4805232
:100470000021384605F06EFF0BF0FCFA804631464D
:10048000002006F0E0F83946002006F0DCF840468F
:100490000BF0F4FA01205CE70BF0ECFA80463146F1
:1004A000002006F0D0F83946002006F0CCF840468F
:1004B0000BF0E4FA00204CE710B5A82006F0A0FCF1
:1004C00005F0B8FA05F01EFBA7214FF6FF7003F008
:1004D0000CFD002140F2A31003F029FE42F20F713F
:1004E00042F2CF0006F04AFA40F2E731532006F01C
:1004F00093FAA7214FF6FF7003F050FD53214FF6FA
:10050000FF7003F0A4FD06F009FB002005F0E9FFF1
:10051000022005F0E6FF05F00AFEFFF70AFF03F0F0
:100520003DFC04F078FA03F00FF801220021B3EE4D
:10053000040A084604F05AF8042200219FED6F0ACD
:10054000012004F053F804F013FA03F020FE01F048
:100550006DF8012251036A4805F056FE012242F26D
:100560000401684805F050FE01F0F8FC4FF4FA6011
:1005700006F096FC01220221634808F0BFFE01212B
:10058000614808F0A3FA0121604807F056FB4FF4D8
:1005900080715F4806F0EEFE1421002006F063F83B
:1005A0005C4908605CA00BF0CBFA10BD10B50020D0
:1005B0000AF01BFB5B49086000200AF016FB5A4951
:1005C000086000200AF011FB5849086000200AF07A
:1005D0000CFB5749086000200AF007FB55490860EA
:1005E00000200AF002FB5449086000200AF0FDFADE
:1005F0005249086000200AF0F8FA514908600020CA
:100600000AF0F3FA4F49086000200AF0EEFA4E496A
:10061000086000200AF0E9FA4C49086000200AF05E
:10062000E4FA4B49086000200AF0DFFA4949086003
:1006300000200AF0DAFA4849086000200AF0D5FAEA
:100640004649086000200AF0D0FA454908600020B9
:100650000AF0CBFA43490860002009F0EAFD42495C
:10066000086000200AF0C1FA4049086000200AF042
:10067000BCFA3F49086000200AF0B7FA3D4908601B
:1006800000200AF0B2FA3C49086000200AF0ADFAF6
:100690003A490860002009F0CCFD39490860002083
:1006A00009F0C7FD374908600A21374809F0C0FF43
:1006B00036490860002009F0BCFD3549086000207B
:1006C00009F0B7FD33490860002009F0B2FD324956
:1006D000086063E001000020107AFF1F0400002082
:1006E000940300205C163401090000204300002020
:1006F0009402002014030020A80000203333054298
:10070000ED000020080000200040014000480040AB
:10071000001402400C000020B3F5CABCBBAFB3C943
:10072000B9A60000600000206400002068000020DE
:100730006C00002070000020740000207800002071
:100740007C00002080000020840000208800002021
:100750008C00002090000020E0000020E400002039
:10076000E8000020480000204C000020500000203D
:10077000CC000020580000209400002054000020ED
:10078000980000209C000020AC03002044000020C2
:10079000DC000020A4000020D4000020002009F08C
:1007A00048FDF9490860002009F043FDF749086059
:1007B00010BD10B51523F64A0021F6480AF060FC7A
:1007C0000523F54A0021F5480AF05AFC0623F44AAD
:1007D0000021F4480AF054FC0723F34A0021F348AF
:1007E0000AF04EFC1223F24A0021F2480AF048FCBB
:1007F0000F23F14A0021F1480AF042FC0823F04A95
:100800000021F0480AF03CFC0A23EF4A0021EF489F
:100810000AF036FC0E23EE4A0021EE480AF030FCC6
:100820000C23ED4A0021ED480AF02AFC0923EC4A8A
:100830000021EC480AF024FC0D23EB4A0021EB4890
:100840000AF01EFC1123EA4A0021EA480AF018FCCB
:100850001023E94A0021E9480AF012FC1323E84A70
:100860000021E8480AF00CFC10BD70B5044625795B
:10087000042D16D004DC012D07D0032D1AD108E079
:10088000052D0AD0272D15D110E0204600F0D2FC0E
:1008900010E0204600F012FD0CE0204600F06EFC57
:1008A00008E02146012004F0D8FD03E0204600F0D6
:1008B00052FE00BF00BF70BD70B506460C462579DC
:1008C000102D06D0112D0CD0122D06D0132D10D1C5
:1008D0000BE0204600F053FD0BE0204600F0EAFD5F
:1008E00007E0204600F096FD03E0204600F00BFEF6
:1008F00000BF00BF70BD2DE9F04107460C46904691
:10090000A088C0F307252679022D6DD1202E1ED098
:1009100006DC102E40D0112E11D0122E62D143E0F1
:10092000222E04D0FB2E54D0FC2E5BD144E0214675
:10093000012004F092FD204602F0D6FF52E021464D
:10094000012004F08AFD204602F0CEFF4AE0AE48C6
:10095000C07900F03C00B8B101202070AB480078AD
:100960004FF4007141EA004040F0200040F0806008
:1009700060603520207200202061204605F009F8D3
:10098000A3A00BF0DDF806E02146012004F065FD90
:10099000204602F0A9FF25E02146012004F05DFD7C
:1009A000204602F0A1FF1DE02146012004F055FD84
:1009B000204602F099FF15E02146012004F04DFD8C
:1009C0009148C079C0F3400010B1002099490870E7
:1009D00008E02146012004F040FD974800680AF035
:1009E00039FA00BF00BF00BF00BFBDE8F0812DE9AC
:1009F000FE4F81468A4616461C46DDF83080374653
:100A000081480078012874D1142F73D008DC012F9D
:100A10000DD0022F6FD0102F33D0122F6CD17AE06F
:100A2000162F1DD0182F23D0FF2FF7D103E020461B
:100A300000F000FCE6E1012080F3138800BF00BF56
:100A4000BFF34F8F7D48006800F4E0607C490843A5
:100A5000001D7A490860BFF34F8F00BF00BFFEE75B
:100A60002146012004F0F9FC204602F03DFFC9E1D7
:100A70002146012004F0F1FC724800680AF0EAF90E
:100A8000C0E17148D0E90020521C40F100006E49DD
:100A9000C1E90020607A217AA288C2F30722CDE959
:100AA0000021029068480CC868480BF049F82146BC
:100AB000012004F0D2FCA088C0F307200090624817
:100AC0000CC863A00BF03CF8A088C0F307206F4966
:100AD0000978884215D0204602F006FFA088000A57
:100AE0006A490870A088C0F30720009056480CC8D7
:100AF00003E088E144E17CE183E165A00BF020F8AC
:100B000008E0A088C0F3072000904F480CC86CA0F4
:100B10000BF016F876E1A088C0F3072000904A4851
:100B20000CC876480BF00CF82146012004F095FC27
:100B3000A088C0F30720009043480CC870A00AF0BA
:100B4000FFFF3148C07900F03C00E0B17A480078FE
:100B5000C8B9A088C0F3072000903B480CC877A014
:100B60000AF0EEFF0120744908700121002005F011
:100B70007AFD0546A088000A287029467A48006850
:100B800009F098FCFBE0F1E0D80000205C000020B8
:100B9000FC5C00108D230008FC6400100B22000890
:100BA000FC6C001093220008FC7400104F22000817
:100BB000FC84001013240008FC7C00107924000839
:100BC000FC8C001069250008FC94001053300008CC
:100BD000FCA4001005230008FCAC00109B2B0008AF
:100BE000FCB400109D300008FCBC0010B5280008C3
:100BF000FCC4001075320008FCCC0010E333000880
:100C0000FCD4001091340008A80000200800002047
:100C1000D4A4B6AFCFDFB3CCB1BBD5BCD3C3A3ACE8
:100C2000B2BBBDF8C8EBD4A4B6AFCFDFB3CCA1A3A1
:100C30000D0A000001000020580000200CED00E02B
:100C40000000FA05480000201000002020C4000821
:100C50003CCAC2CEF14944A3BA256C6C753EA3A828
:100C6000322F3134A3A9D2D1BEADB6D42564BAC5D2
:100C7000D0A1B3B5C9EAC7EBD7AAB9ECD6A1BDF8E4
:100C8000D0D0BBD8D3A6A1A30D0A0000000000203D
:100C90003CCAC2CEF14944A3BA256C6C753E2564AA
:100CA000BAC5D0A1B3B5C9EAC7EBD7AAB9ECC8CECB
:100CB000CEF1D2D1BEADBDA8C1A2A1A30D0A000044
:100CC0003CCAC2CEF14944A3BA256C6C753EA3A8B8
:100CD000455252A3A9CAD5B5BD2564BAC5D0A1B3A2
:100CE000B5C9EAC7EBD7AAB9ECD6A1A3ACC8CECE9A
:100CF000F1D6D8B8B4A1A30D0A00000074C400084E
:100D00003CCAC2CEF14944A3BA256C6C753EA3A877
:100D1000372F3134A3A9D2D1BEADB6D42564BAC51C
:100D2000D0A1B3B5D2D1BEADC9CFB9ECBDF8D0D04A
:100D3000BBD8D3A60D0A0000400000203CCAC2CE9A
:100D4000F14944A3BA256C6C753EB7A2CBCD25649E
:100D5000BAC5D0A1B3B5D2D1BEADC9CFB9ECD0C55B
:100D6000BAC5C1BF0D0A00004C000020A088C0F326
:100D7000072000902A480CC82AA00AF0E1FE41E0B2
:100D8000A088C0F30720009025480CC834A00AF0C2
:100D9000D7FE2146012004F060FBA088C0F30720A5
:100DA00000901F480CC83EA00AF0CAFE4A48C0790D
:100DB00000F03C0098B14948007880B901204849CA
:100DC0000870A088C0F30720009015480CC845A003
:100DD0000AF0B6FE4E4800680AF03CF808E0A08829
:100DE000C0F3072000900E480CC84AA00AF0A8FEE5
:100DF00008E0207A38490870607A4870A07A8870D4
:100E000000E000BF0AE03448007838B9012F03D170
:100E1000204600F00FFA00E000BF00BFBDE8FE8FE3
:100E2000100000203CCAC2CEF14944A3BA256C6C24
:100E3000753EA3A8455252A3A9CAD5B5BD2564BA2B
:100E4000C5D0A1B3B5D2D1BEADC9CFB9ECD6A1A39F
:100E5000ACB2BBB7A2CBCDD0C5BAC5C1BF0D0A00DD
:100E60003CCAC2CEF14944A3BA256C6C753EA3A816
:100E700031322F3134A3A9D2D1BEADBDD3CAD5B53D
:100E8000BD20256420BAC5D0A1B3B5D2D1BEADCFA7
:100E9000C2B9ECD6A1A3ACCFC2B9ECB5C00D0A0063
:100EA0003CCAC2CEF14944A3BA256C6C753EA3A8D6
:100EB00031332F3134A3A9D2D1BEADB6D42564BA13
:100EC000C5D0A1B3B5CFC2B9ECD6A1BDF8D0D0BBC7
:100ED000D8D3A60D0A000000A80000204100002081
:100EE000400000203CCAC2CEF14944A3BA256C6C34
:100EF000753EB7A2CBCD2564BAC5D0A1B3B5D2D1CA
:100F0000BEADCFC2B9ECD0C5BAC5C1BF0D0A000095
:100F1000500000203CCAC2CEF14944A3BA256C6CF3
:100F2000753EA3A8455252A3A9CAD5B5BD2564BA3A
:100F3000C5D0A1B3B5D2D1BEADCFC2B9ECD6A1A3B5
:100F4000ACB5ABB2BBB7A2CBCDD0C5BAC5C1BF0D96
:100F50000A000000704700BFFEE700BFFEE700BFC9
:100F6000FEE700BFFEE77047704700000CB50020A9
:100F7000019000907648006840F480307449086021
:100F800000BF7348006800F4003000900198401CD6
:100F90000190009818B90198B0F5A04FF1D16C48B4
:100FA000006800F4003010B10120009001E0002042
:100FB00000900098012846D165484030006840F014
:100FC00080506349403108606248006840F4404006
:100FD000604908605E48083000685D490831086073
:100FE0000846006840F4004008600846006840F485
:100FF000A05008605848091F0860081F006840F0AA
:101000008070091F086000BF5148006800F0007040
:101010000028F9D040F20570504908604C4808306B
:10102000006820F003004A4908310860084600685B
:1010300040F00200086000BF45480830006800F03A
:101040000C000828F8D10CBD10B54548006840F4E4
:101050007000434908603E48006840F001003C4988
:10106000086000203A4908310860394800683D4965
:101070000840374908603C48091D0860081F00689F
:1010800020F48020091F0860002031490C310860DD
:10109000FFF76CFF4FF0006031498039086010BDE8
:1010A00070B500200022022300240221284D0835BB
:1010B0002D6805F00C0020B1042806D0082834D192
:1010C00007E02A4D2A4E356033E02A4D284E356020
:1010D0002FE01F4D2D1D2D68C5F380541C4D2D1D77
:1010E0002D6805F03F0154B1224DB5FBF1F5184EC6
:1010F000361D3668C6F3881605FB06F209E01B4D5F
:10110000B5FBF1F5124E361D3668C6F3881605FBA1
:1011100006F20F4D2D1D2D68C5F301456D1C6B00AA
:10112000B2FBF3F5124E356003E0104D104E356002
:1011300000BF00BF064D08352D68C5F303150E4EE0
:10114000705D0B4D2D68C540094E356070BD0000C7
:10115000003802400070004008544007003C024044
:1011600088ED00E0FFFFF6FE103000240024F400BC
:10117000B400002000127A00B800002070B50546C7
:101180000AF078FC06461421002005F06CFA0446AB
:10119000002C41D030460AF071FC1422294620462A
:1011A0000AF021FE0020A060E060FE480068A06018
:1011B000FC494968E16008202070204604F0E9FB02
:1011C000F8488068A060F749C968E160082020708D
:1011D000204604F0DEFBF3480069A060F14949694C
:1011E000E16008202070204604F0D3FBED488069C0
:1011F000A060EC49C969E16008202070204604F035
:10120000C8FB0AF037FC06462146002005F01BFA11
:1012100030460AF033FC0CE00320E3498870E148D3
:101220004068401CDF4948604FF40071DF4806F019
:10123000A1F870BD70B505460AF01CFC06461421E5
:10124000002005F010FA0446002C2ED030460AF09B
:1012500015FC1422294620460AF0C5FD0020A06096
:10126000E06008202070D04800782072CE48417895
:1012700061728178A1720179E172C1792173017A79
:10128000617300890112A173C748C179E1732046D7
:1012900004F07FFB0AF0EEFB06462146002005F035
:1012A000D2F930460AF0EAFB07E00320BE49887015
:1012B000BC484068401CBB49486070BD2DE9F04700
:1012C00080460AF0D7FB81461421002005F0CBF9B7
:1012D0000446002C44D048460AF0D0FB1422414674
:1012E00020460AF080FD0020A060E0600820207009
:1012F000002728E0002622E0002519E0AC4800EB9A
:10130000471005EB860110F8111004F1080000F8F1
:101310001510A74800EB471005EB860130F81100C7
:1013200002126800401C04F108010A54681CC5B28E
:10133000042DE3DB204604F02CFB701CC6B2012E0A
:10134000DADB781CC7B2042FD4DB0AF093FB8146AA
:101350002146002005F077F948460AF08FFB0CE0A3
:101360000320914988708F484068401C8D4948602F
:101370004FF400718D4805F0FDFFBDE8F08770B5B2
:1013800005460AF077FB06461421002005F06BF9AC
:101390000446002C30D030460AF070FB1421204661
:1013A0000AF07DFD1422294620460AF01CFD00208B
:1013B000A060E060082020707E48007820727D48A0
:1013C0000088010A61727B480068010CA1727948AB
:1013D0000068010EE172784801782173204604F01C
:1013E000D8FA0AF047FB06462146002005F02BF903
:1013F00030460AF043FB0CE003206B4988706948D3
:101400004068401C674948604FF40071674805F028
:10141000B1FF70BD2DE9F04105460AF02BFB0746F0
:101420001421002005F01FF904469CB338460AF049
:1014300025FB142120460AF032FD142229462046BD
:101440000AF0D1FCE07A0106A07A01EB0041607A53
:1014500001EB0020217A46185648006886420BD0DE
:101460000AF008FB07462146002005F0ECF8384654
:101470000AF004FBBDE8F081207B4F4908700AF0B8
:10148000F9FA07462146002005F0DDF838460AF053
:10149000F5FA0DE0FFE703204349887041484068B2
:1014A000401C404948604FF40071404805F062FF1D
:1014B00000BFDFE770B505460AF0DCFA06461421E6
:1014C000002005F0D0F80446E4B130460AF0D6FA20
:1014D0001422294620460AF086FC0020A060E06025
:1014E00001202070354800782072204604F051FA1F
:1014F0000AF0C0FA06462146002005F0A4F830465E
:101500000AF0BCFA70BD70B505460AF0B3FA06469B
:101510001421002005F0A7F80446DCB130460AF09B
:10152000ADFA142120460AF0BAFC142229462046BE
:101530000AF059FC0020A060E060207A1F49087082
:101540000AF098FA06462146002005F07CF830465D
:101550000AF094FA70BD70B505460AF08BFA06469B
:101560001421002005F07FF80446002C53D03046AB
:101570000AF084FA142120460AF091FC142229462C
:1015800020460AF030FC0020A060E0600C480078A3
:1015900020720B494968C4F809100021A4F80D1005
:1015A000E1730FE020000020A8000020001402409A
:1015B00094020020040000200800002043000020C6
:1015C0009403002008202070204604F0E2F9002057
:1015D000A060E060FE49D1E90201C4E902010820EF
:1015E0002070204604F0D5F90020A060E060F849A2
:1015F000D1E90401C4E9020108202070204604F06A
:10160000C8F90AF037FA06462146002005F01BF813
:1016100030460AF033FA70BD01460868ED4A1060A2
:1016200010460068704702461160704710B50021EF
:101630000022002016E0E84B03EB411333F8103092
:101640004FF6FF74A3420BD0E34B03EB411333F887
:101650001030934204DDE04B03EB411333F81020CC
:10166000431CD8B21028E6DBDC4B1A804FF6FF7221
:10167000002016E0D84B03EB411333F810304FF63F
:10168000FF74A3420BD0D44B03EB411333F810305B
:10169000934204DAD04B03EB411333F81020431C80
:1016A000D8B21028E6DBCE4B1A8010BD38B9CD4A2F
:1016B000928A01238B409A43CA4B9A821EE00128EA
:1016C00007D1C84AD28A01238B409A43C54BDA829C
:1016D00014E0022807D1C34A128B01238B409A439E
:1016E000C04B1A830AE0032807D1BE4A538B01225C
:1016F0008A409343BB4A538300E0704700BFFCE736
:1017000038B9B84A928A01238B401A43B54B9A8262
:101710001FE0012807D1B34AD28A01238B401A4324
:10172000B04BDA8215E0022807D1AE4A128B0123B2
:101730008B401A43AB4B1A830BE0032808D1A94A0C
:10174000538B01228A4013439AB2A64B5A8300E07E
:10175000704700BFFCE72DE9F84F4FF00008C14685
:10176000A148D0F800809F48C08800285ED09D48DE
:10177000C7881F2F18D19D480078012805D11F2246
:101780000121142002F08BFD04E01F22002114200F
:1017900002F085FD6A4600219548006809F0ABFA21
:1017A00000209049C88041E007F11F00B8B98F4878
:1017B000007828B91F220121142002F070FD04E0F6
:1017C0001F220021142002F06AFD6A460021884889
:1017D000006809F090FA00208249C88026E00AF0EB
:1017E00049F982461421002004F03DFF0546EDB181
:1017F00050460AF043F9142128460AF050FB7D4870
:1018000068602F72390A697200202861284602F048
:101810006BF800207349C8800AF02CF982462946EB
:10182000002004F010FF50460AF028F96D480089A6
:101830004FF6FF7188422CD00AF01CF98246142121
:10184000002004F010FF054650460AF017F905B3D2
:10185000142128460AF023FB6648801E6860614810
:10186000007A28725F48008901126972002028619D
:10187000284602F039F84FF6FF705A4908810AF0FD
:10188000F9F882462946002004F0DDFE50460AF0B1
:10189000F5F8544840894FF6FF71884225D00AF088
:1018A000E9F882461421002004F0DDFE0546E5B18A
:1018B00050460AF0E3F8142128460AF0F0FA4D48A1
:1018C000401E686000202861284602F00DF84FF69F
:1018D000FF70444948810AF0CDF88246294600202D
:1018E00004F0B1FE50460AF0C9F83E48808978B944
:1018F0004148C079C0F3400018B940480078012839
:1019000002D100203E4908704FF6FF7035498881AA
:1019100034488089012826D109E0D8F81090D9F8F8
:101920001000C8F810004946002004F08CFED8F8DA
:1019300010000028F1D12C48D0F800802E48C07942
:10194000C0F3400018B92D480078012802D10020CA
:101950002B4908704FF6FF7022498881294800887A
:10196000C01C284908801F488089022812D1C10262
:10197000254805F0FDFC642300221146104609F0BD
:10198000F1FE4FF48051204805F0F4FC4FF6FF7053
:101990001449888113488089032806D101201B49F6
:1019A00008704FF6FF700F4988810E48808904281F
:1019B00009D117480078C0F10100154908704FF6A9
:1019C000FF700849888107488089052829D121E0CE
:1019D00094030020C800002094020020180000207A
:1019E0001A00002000020020D0000020ED0000209E
:1019F000E40000201202FE04A80000201D000020C8
:101A000001000020D0010020000802400A00002050
:101A1000D30100200020FD4908704FF6FF70FC49FB
:101A20008881FB488089062873D1FA48007800280D
:101A30006BD0F8480078022867D0F6480078032871
:101A400047D10121880605F0FEFE962300221146AB
:101A5000104609F087FE0AF00DF882461421002096
:101A600004F001FE044650460AF008F8142120460E
:101A70000AF015FA00202070606820F0FF00606016
:101A8000606820F47F406060606820F47F006060E0
:101A9000606820F080706060606820F000706060B6
:101AA000606820F080606060606820F000606060C6
:101AB000606820F080506060204603F06AFF09F003
:101AC000D9FF82462146002004F0BDFD504609F0B2
:101AD000D5FFD0480078022812D009F0CBFF82460B
:101AE0000421002004F0BFFD0646504609F0C6FF61
:101AF00036B1012030603146C748006808F0DAFC92
:101B00004FF6FF70C249888103E04FF6FF70C0496D
:101B10008881BF488089072873D1BE480078012892
:101B20006BD0BC480078022867D0BA4800780328F8
:101B300047D10121880605F086FE96230022114632
:101B4000104609F00FFE09F095FF8246142100208F
:101B500004F089FD0446504609F090FF1421204608
:101B60000AF09DF900202070606820F0FF0060609E
:101B7000606820F47F406060606820F47F006060EF
:101B8000606820F080706060606820F000706060C5
:101B9000606820F080606060606820F000606060D5
:101BA000606820F080506060204603F0F2FE09F08B
:101BB00061FF82462146002004F045FD504609F0B1
:101BC0005DFF94480078022812D009F053FF824646
:101BD0000421002004F047FD0646504609F04EFF60
:101BE00036B10220306031468B48006808F062FC54
:101BF0004FF6FF708649888103E04FF6FF708449F5
:101C0000888183488089082827D182480078032862
:101C10001FD080480078022813D009F02BFF82469D
:101C20000421002004F01FFD0646504609F026FF5F
:101C300056B10420306031467748006808F03AFC1D
:101C400002E00320734908704FF6FF7070498881E5
:101C500003E04FF6FF706E4988816D48C08920BB54
:101C600009F008FF82461421002004F0FCFC054620
:101C7000DDB1504609F002FF142128460AF00FF9A1
:101C80006648686000202861284601F02DFE4FF666
:101C9000FF705F49C88109F0EDFE824629460020A9
:101CA00004F0D1FC504609F0E9FE5948C0890128EA
:101CB00005D102F009F94FF6FF705549C881544823
:101CC000C089022806D1002002F0FEF84FF6FF700E
:101CD0004F49C8814E48008A4FF6FF7188423FD075
:101CE0004B48008A00124E4901EB40104849097CDC
:101CF00030F811004FF6FF71884216D1454801892E
:101D00004348008A0012464A02EB4010404A127CC7
:101D100020F812103E48008A3E4988803C4A117CD7
:101D2000128A1012FFF7ECFC11E04FF6FF713848F1
:101D3000008A00123A4A02EB4010354A127C20F821
:101D40001210334A117C128A1012FFF7AFFC4FF6C3
:101D5000FF702F49088233480088401C31490880B1
:101D60002B48408A01280FD180222F492C4809F0A6
:101D7000F5FF01F0D1FA4FF6FF7025494882294856
:101D80000088401C274908802148408A022810D139
:101D90004FF6FF72802122480AF057F801F0BCFA92
:101DA0004FF6FF701A4948821E480088401C1D49A2
:101DB00008801748408A98B9802219491A4809F0C2
:101DC000CDFF02F013F84FF6FF7011494882154815
:101DD0000088401C1349088001F09EFAFFF726FC9A
:101DE0000B48808CD8B30A48808C012822D14FF44C
:101DF000FA720E480178C82002F051FA6A464FF490
:101E00007A710B48006808F076FF25E00A00002090
:101E100000020020A80000205C0000202202FE0436
:101E200014030020D001002094020020EF000020C5
:101E3000E4000020DF48808C02280DD14FF4FA72B4
:101E4000DD480178C82002F02AFA6A464FF47A7118
:101E5000DA48006808F04FFF0020D6498884D5484A
:101E6000808D4FF6FF71884213D0D24890F82C0035
:101E7000D3490870012242F20401D14804F06AFA01
:101E80004FF6FF70CB498885CE480088401CCD496D
:101E90000880BDE8F88FCC48007840B1CB48006896
:101EA000006920B1C848C079C0F3400008B10020E3
:101EB00070470120FCE72DE9F0410026002543E0B2
:101EC00000253EE0C24800EB461030F815004FF602
:101ED000FF7188422FD009F0CDFD07461421002064
:101EE00004F0C1FB0446FCB1384609F0C7FD1421DB
:101EF000204609F0D4FFB748606025723112617244
:101F000000202061204601F0EFFC09F0B3FD0746F8
:101F10002146002004F097FB384609F0AFFDA548A4
:101F2000C08C401CA349C88442F2107300221146A1
:101F3000104609F017FCA448807800B103E0681C43
:101F4000C5B2102DBEDB00BFA3480078012803D125
:101F50009D4880780028B3D0BDE8F08170B509F0C5
:101F600089FD06461421002004F07DFB044630461E
:101F700009F084FD44B1002020610320A0700020FE
:101F800060709448401CA06009F06BFCE0608F48D2
:101F900005682C610020206170BD10B54FF6FF72FE
:101FA000002111E08A4B33F811304FF6FF74A34241
:101FB00008D0874B33F81130934203DA844B33F85F
:101FC000112008464B1CD9B21029EBDB10BD2DE9BE
:101FD000F8430646002500277C480568002409F0E0
:101FE00049FD80461421002004F03DFB0446404694
:101FF00009F044FD1421204609F051FF002E3FD185
:102000007148007800283BD06F480078022837D00C
:10201000012020706A480078704941EA0040606001
:102020000020207220612146012003F081FB6A46D6
:1020300000216B48006808F05EFE9DF80000002853
:102040001DD1614908700CE02F693869286109F0D9
:1020500011FD80463946002004F0F5FA404609F0AB
:102060000DFD28690028EFD1584805685648C07909
:10207000C0F34000002802D000205A4908708BE0CD
:10208000032E48D150480078032844D00120207006
:102090004B480078514941EA0040606003202072BB
:1020A000002020612146012003F042FB6A46002106
:1020B0004B48006808F01FFE9DF8000000286BD117
:1020C000032041490870962300221146104609F06A
:1020D00049FB00214FF0806005F0B5FB0CE02F6953
:1020E0003869286109F0C6FC80463946002004F0B2
:1020F000AAFA404609F0C2FC28690028EFD133480B
:1021000005683148C079C0F34000002844D0002061
:102110003449087040E0012E3ED12B480078012858
:102120003AD029480078022836D00120207024486F
:1021300000782A4941EA00406060012020720020B6
:1021400020612146012003F0F3FA6A460021244869
:10215000006808F0D0FD9DF80000E8B901201A4998
:1021600008700CE02F693869286109F083FC80460B
:102170003946002004F067FA404609F07FFC2869E0
:102180000028EFD1114805680F48C079C0F340001E
:1021900010B100201349087009F06CFC80462146FC
:1021A000002004F050FA404609F068FC0648007828
:1021B000BDE8F88300020020EE000020E4000020CB
:1021C00008000020D0010020A8000020D00000203E
:1021D000940200201002FE040A000020FB0200040A
:1021E000580000200100002008B50020009000BF2A
:1021F0000AE06A4600215848006808F07CFD57480C
:102200000168002002F0DCFEF3E708B50020009032
:1022100000BF0AE06A4600215148006808F06BFDE3
:102220004E484168012002F0CBFEF3E708B50020DC
:10223000009000BF0AE06A4600214A48006808F0A2
:102240005AFD49480168002003F08EF8F3E708B50D
:102250000020009000BF0AE06A4600214348006861
:1022600008F049FD40484168012003F07DF8F3E79C
:1022700008B50020009000BF0AE06A4600213C48F3
:10228000006808F038FD3B480168002003F043F97E
:10229000F3E708B50020009000BF0AE06A4600217D
:1022A0003548006808F027FD32484168012003F0F6
:1022B00032F9F3E708B500240020009021E06A46D7
:1022C00000212E48006808F016FD15E02C49096829
:1022D000086903F065FA2A480068046928492069FA
:1022E0000968086109F0C6FB05462146002004F094
:1022F000AAF9284609F0C2FB2148006800690028B5
:10230000E4D1DCE708B5002400BF0020009021E004
:102310006A4600211B48006808F0EDFC15E01A49E8
:102320000968086903F073FA1748006804691649D8
:1023300020690968086109F09DFB054621460020D7
:1023400004F081F9284609F099FB0F4800680069FC
:102350000028E4D1DCE7000060000020F800002045
:102360006400002068000020080100206C000020AC
:102370007000002000010020740000208C0000206C
:1023800010010020900000201401002000BF002553
:102390003EE04FF40071254804F0ECFF4FF4FA736F
:1023A00000221146104609F0DDF94FF400711F4874
:1023B00004F0DEFF4FF4487300221146104609F086
:1023C000D1F9002004F0A8F80446681CC5B2092D14
:1023D0001CD100251648C07900F03C021548017850
:1023E00015A009F0ADFB00201249087010480078D4
:1023F000012804D10E48807808B9012C06DD0C486C
:102400008278017823461B4809F09AFBFFF753FDB9
:10241000BFE700BF09E003F0F5FC03F029FB0A2346
:1024200000221146104609F09DF9F4E7001402401D
:10243000A8000020000000204C6173744672616D9A
:10244000466C616725643B5472616E7353746174AA
:1024500075732E547261636B5573652E547261638C
:102460006B53746174757326307833633D25640D46
:102470000A000000BCC4000808B500BF73E06A464B
:102480000021FE48006807F05AFF0446E07A010682
:10249000A07A01EB0041607A01EB0020217A451817
:1024A000EE0F002D02DAE843471C00E02F46F44807
:1024B0000078012803D1C6F10100C6B203E0F0485C
:1024C000007800B900BF3A463146642001F0E7FECB
:1024D0006A464FF47A71EB48006808F00CFC9DF8EE
:1024E00000000A2831D10120E74908706220E7493D
:1024F0008870C6F10100C1B24FF47A72C82001F0B1
:10250000CEFE6A464FF47A71DE48006808F0F3FBAD
:102510009DF8000018B16420DC49887005E04FF494
:102520007A723146C82001F0BAFE6A460021D548C9
:10253000006808F0E0FB0020D4498870D249087098
:10254000D348006808F086FC03E0D148006808F032
:1025500081FC09F08FFA80462146002004F073F8D0
:10256000404609F08BFA8AE708B500BF9EE16A464B
:102570000021C848006808F029F9044609F07AFAF1
:1025800083461421002004F06EF80546584609F0F1
:1025900075FA1421284609F082FC2079102854D1BC
:1025A000217A607A41EA0029217A002001F090F82E
:1025B00009F0FF0188422CD1B7480088401CB64979
:1025C00008806068C0F30740B449097888420BD19D
:1025D00001202870606868605520287200202861FA
:1025E0002946012003F0A4F809F044FA834629465D
:1025F000002004F028F82146002004F024F8584672
:1026000009F03CFAA148C07920F002009F49C87146
:102610004CE13520207201202070204603F0B9F9EA
:1026200009F028FA83462946002004F00CF82146D8
:10263000002004F008F8584609F020FA9348C079C1
:1026400020F002009149C87130E12079112829D188
:10265000012000F087FF6068C0F307408F490978C8
:1026600088420AD1012028706068686000202872C2
:1026700028612946012003F05BF809F0FBF9834645
:102680002946002003F0DFFF2146002003F0DBFF96
:10269000584609F0F3F97D48C07920F002007B49E3
:1026A000C87103E1A088C0F30720022867D1207910
:1026B000222864D14FF0000A0027012000F052FFC9
:1026C00000BF0BE0764800EB4A1030F817004FF6D9
:1026D000FF71884200D0B846781CC7B2102FF1DBDA
:1026E0006F4800884FF6FF71884201D0002600E055
:1026F00001264146002000F0EBFF40453ED1314627
:10270000002000F0E5FFB04224D16068C0F307402C
:102710006249097888421DD1082028706068686085
:102720005A48007828725948417869728178A972AC
:102730000179E972C1792973017A697300890112FB
:10274000A9735248C179E973002028612946012004
:1027500002F0EEFF09F08EF983462946002003F0CF
:1027600072FF2146002003F06EFF584609F086F9FB
:102770004648C07920F002004449C87196E02079AB
:10278000122869D16068C0F30070002864D1217AF2
:10279000607A01EB0020012815D139480078012822
:1027A00005D11E220121C82001F079FD04E01E227E
:1027B0000021C82001F073FD6A46002131480068FD
:1027C00008F099FA27E0217A607A01EB002000B244
:1027D000401CA8B92A480078012805D11E220021F2
:1027E000C82001F05CFD04E01E220121C82001F098
:1027F00056FD6A4600212348006808F07CFA0AE08A
:1028000021461E48006807F055FE6A460021204810
:10281000006808F070FA6068C0F307401F49097843
:1028200088420AD101202870606868600020287200
:1028300028612946012002F07BFF09F01BF983463D
:102840002946002003F0FFFE2146002003F0FBFE96
:10285000584609F013F929E035202072204603F08C
:1028600098F809F007F983462146002003F0EBFEB3
:10287000584609F003F90548C07913E0A400002088
:10288000ED000020E4000020D2010020A80000207C
:10289000E800002044000020D001002008000020B3
:1028A0009402002020F002000149C8715FE6000098
:1028B000A80000201CB5002400BF4FF6FF7B00BF1E
:1028C000BFE01421002003F0CEFE0446002C7DD092
:1028D00001AA0021FE48006807F031FD04461421DA
:1028E000002003F0C0FE0546FF274FF6FF7B0026C1
:1028F0001FE0F84800EB4610E17830F811004FF681
:10290000FF71884213D0F34901EB4611E27831F8A8
:102910001210F14A1289881A002801DB014600E0F2
:1029200041421FFA81F8D84501DAC3463746701C88
:10293000C6B2042EDDDBFF2F14D109F09BF8009006
:102940002946002003F07FFE2146002003F07BFE95
:10295000009809F093F8E048C07920F00200DE49C1
:10296000C8716EE0E178DDA009F0EAF83946002090
:1029700001F07FFAE178384600F0AAFE8146E1785E
:10298000DFA009F0DDF809F0FF0AE07850452AD110
:10299000E2480088401CE14908801421284609F0DB
:1029A0007EFAA068686001202870002028722861E3
:1029B0002946012002F0BCFEC748C07920F0020081
:1029C000C549C87109F056F8009000E022E0294698
:1029D000002003F038FE2146002003F034FE00986A
:1029E00009F04CF82CE03520BB498870CC48406891
:1029F000401CCB49486009F03DF800902946002072
:102A000003F021FE2146002003F01DFE009809F08E
:102A100035F815E00320B0498870C1484068401C73
:102A2000BF49486009F026F800902946002003F0CD
:102A30000AFE2146002003F006FE009809F01EF869
:102A400000BF3EE708B54FF0000A002600BF09F0BE
:102A500011F883461421002003F005FE064658466F
:102A600009F00CF898E090E00024AE4804684FF0BC
:102A700000084FF0FF090027002570E020698078EA
:102A8000022837D1002533E0924800EB4510216938
:102A9000C97830F811008F4901EB4511226912798C
:102AA00031F81210884221D18A4800EB4510216983
:102AB000C97830F8110088490989884216D18548BB
:102AC00000EB45102169C97830F811004FF6FF710D
:102AD00088420BD07F4800EB45102169097930F816
:102AE00011004FF6FF71884200D0A946681CC5B29C
:102AF000042DC9DBB9F1FF0F22D04946002001F0B7
:102B0000B8F91421304609F0CAF902203070206962
:102B1000007800048449097840EA012040F013005D
:102B200040F0A05070602069C078307200203061A1
:102B30003146012002F0FCFD4FF0FF09781CC7B2BE
:102B4000D4F81080D8F81000206108F093FF834675
:102B50004146002003F077FD584608F08FFF2069BA
:102B600000288BD1781CC7B20CE06A4600216F4860
:102B7000006808F0C0F89AF80410012001F079F913
:102B8000781EC7B2002FF0D100BF5348C07900F0C3
:102B90003C0000287FF468AF65E78AB0002006900B
:102BA000834600254FF6FF7005900024002700267D
:102BB0004FF000084CE21421002003F054FD0746BA
:102BC0001421002003F04FFD064609AA00215848B1
:102BD000006807F0B4FB04464FF6FF700590002034
:102BE00002903D48C07920F00200801C3A49C8712B
:102BF00000253BE0374800EB4510E17830F8110044
:102C0000344901EB4511227931F8121088422BD159
:102C1000304800EB4510E17830F811004FF6FF71B5
:102C2000884221D02B4800EB4510217930F8110063
:102C30004FF6FF71884217D001200290254901EB21
:102C40004511227931F81210234A1289881A002876
:102C500001DB014600E041421FFA81F905988145F8
:102C600002DACDF814900495681CC5B2042DC1DBBE
:102C70000298002877D14FF6FF7005901648C0796A
:102C800020F0400040301449C871002578E0114818
:102C900000EB4510E17830F811004FF6FF718842E3
:102CA0006CD00C4800EB4510217930F811004FF63C
:102CB000FF71884262D0074A02EB4512237932F84D
:102CC0001320044B03EB451394F803C032E00000DB
:102CD000DC00002094020020A8000020BDF8C8EB12
:102CE000D4A4B6AFCFDFB3CCA3ACD4A4B6AFB5BD3C
:102CF00020256420BAC5B9ECB5C0A1A30D0A000017
:102D0000D4A4B6AFB5BD20256420BAC5B9ECB5C012
:102D1000B3C9B9A6A3A10D0A00000000D00100208C
:102D200020000020D00000200800002050000020DB
:102D3000D800002033F81C30D11A002901DB0A46E4
:102D400000E04A42EB4B03EB451394F803C033F821
:102D50001C30DFF8A4C3BCF808C0ACEB03000028AB
:102D600002DB034601E012E143421A441FFA82F9F2
:102D70000598814502DACDF814900495681CC5B217
:102D8000042D84DBE078DD490978CDE90010DC48CA
:102D90000CC8DC4808F0D4FE0020049901F069F862
:102DA000E178049800F094FC82460AF0FF00069057
:102DB000E178069881423DD1E078D0490978CDE9A3
:102DC0000010CF480CC8D0A008F0BAFE1421384635
:102DD00009F065F80220387020780004C7490978A6
:102DE00040EA012040F0110040F0A0507860E07807
:102DF000387221797972002038613946012002F059
:102E000097FC20780090BE480CC8CDA008F098FE32
:102E100008AA0021D648006807F091FA07902078A8
:102E20000090B7480CC8D3A008F08AFE012004998E
:102E300001F01FF80020049901F01BF82079AF4938
:102E40000978CDE90010AE480CC8D74808F078FEE4
:102E50002179049800F03CFC82460AF0FF0B2079AF
:102E6000584574D12079A5490978CDE90010A448C6
:102E70000CC8CEA008F064FE1421304609F00FF80B
:102E800002203070207800049C49097840EA012033
:102E900040F0130040F0A0507060E07830720020E5
:102EA00030613146012002F043FC1421002003F080
:102EB000DAFB80461421404608F0F1FF012088F833
:102EC00000008E4800784FF0806141EA004040F4F5
:102ED000007040F02100C8F80400207888F808004D
:102EE0000020C8F810004146012002F021FC2078A3
:102EF000009083480CC8BBA008F022FE0020049973
:102F000000F0B7FF08AA41F28831C148006807F015
:102F1000F2FE9DF8200040B920780090019078489A
:102F20000CC8BCA008F00CFE02E0CAA008F008FE25
:102F30000120049900F09DFF6F48C07920F0400007
:102F40006D49C8710846C07920F00200C8710020A0
:102F5000C2490870C249087008F08CFD03904146D0
:102F6000002003F070FB3146002003F06CFB394673
:102F7000002003F068FB2146002003F064FB0020E2
:102F8000079903F060FB039808F078FD4DE0217984
:102F9000049800F09DFB82460020049900F069FF30
:102FA0000AF0FF0B207958452DD11421304608F046
:102FB00076FF02203070207800045049097840EAFA
:102FC000012040F0130040F0A0507060E0783072B3
:102FD000002030613146012002F0AAFB08AA00213E
:102FE0008B48006807F087FE0120049900F041FF3C
:102FF0004148C07920F040003F49C8710846C07977
:1030000020F00200C87108F035FD03903146002021
:1030100003F019FB3946002003F015FB2146002080
:1030200003F011FB039808F029FD08F023FD03903D
:103030003146002003F007FB3946002003F003FB74
:103040002146002003F0FFFA039808F017FD00BFA7
:10305000B1E500BF21E005E00A2300221146104639
:1030600008F080FB7F48006800690028F4D02248FF
:10307000C079C0F340000028EED11F48C079C0F3EA
:1030800080100028E8D10A2300221146104608F0DB
:1030900069FB7448006800F028FDDCE700BF27E00A
:1030A0007148007800281DDD0A23002211461046D1
:1030B00008F058FB6D48006800F0020028B90020B5
:1030C0006B4908706849087012E06848006800F0B1
:1030D000020002280CD101206549087000206249D5
:1030E000087005E0052300221146104608F03AFB5F
:1030F000D6E7000094020020A8000020080000206D
:103100001000002000C500083CCAC2CEF14944A30B
:10311000BA256C6C753EA3A8342F3134A3A925645D
:10312000BAC5D7AAB9ECC6F7D7AAD2C6B5BD256429
:10313000BAC5B9ECB5C0B3C9B9A6A3A10D0A0000C0
:103140003CCAC2CEF14944A3BA256C6C753EA3A813
:10315000352F3134A3A9CDA8D6AA2564BAC5D0A1EC
:10316000B3B5C9CFB9ECB5C0A3A10D0A00000000EA
:103170004C0000203CCAC2CEF14944A3BA256C6C75
:10318000753EA3A8382F3134A3A92564BAC5D0A1B0
:10319000B3B5C9CFB9ECB5C0D2D1BEADCDEAB3C9D4
:1031A000A3A10D0A0000000044C500083CCAC2CE1D
:1031B000F14944A3BA256C6C753EA3A831302F3178
:1031C00034A3A92564BAC5D7AAB9ECC6F7D7AAD241
:1031D000C6B5BD2564BAC5B9ECB5C0B3C9B9A6A317
:1031E000A10D0A003CCAC2CEF14944A3BA256C6CB9
:1031F000753EA3A831312F3134A3A9CDA8D6AA2575
:1032000064BAC5D0A1B3B5CFC2B9EC0D0A000000B5
:10321000500000203CCAC2CEF14944A3BA256C6CD0
:10322000753EA3A831342F3134A3A92564BAC5D083
:10323000A1B3B5CFC2B9ECB3C9B9A6A3AC2564BAE2
:10324000C5D0A1B3B5C1F7B3CCBDE1CAF80D0A0D25
:103250000A0D0A00B3ACCAB10D0A000040000020FC
:1032600041000020D0000020420000201004024055
:103270000300002000BF4BE0264800780A2841D117
:1032800008F0F8FB05461421002003F0ECF9044691
:10329000284608F0F3FB1421204608F000FE002029
:1032A0002070606820F0FF006060606820F47F405C
:1032B0006060606820F47F006060606820F080706B
:1032C0006060606820F000706060606820F080607E
:1032D0006060606820F000606060606820F080508E
:1032E0006060204602F055FB00200A49087008F093
:1032F000C1FB05462146002003F0A5F9284608F049
:10330000BDFB05E0142300221146104608F02AFAFE
:10331000B2E70000FD01002010B5002000210022CE
:103320004B4B9A82DA821A835A8300BF1EE0002137
:1033300018E0484A02EB401232F811204FF6FF73B2
:103340009A420DD000F10A02414B33F812200123BA
:103350008B401A4393B200F10A023D4C24F812301C
:103360004A1CD1B21029E4DB421CD0B20428DEDBB7
:1033700010BD10B5002000210022354B9A83DA835E
:103380001A845A8400BF1EE0002118E0324A02EB82
:10339000401232F811204FF6FF739A420DD000F11F
:1033A0000E022B4B33F8122001238B401A4393B2A9
:1033B00000F10E02264C24F812304A1CD1B210291A
:1033C000E4DB421CD0B20428DEDB10BD0020234A1F
:1033D000116802E00969421C90B20A69002AF9D119
:1033E000704708B5002400BF31E06A4600211C4840
:1033F000006807F080FC1B480089154908801948BF
:10340000808848801748007888801648407808856A
:1034100014488078488514480078C885FFF7D6FF9F
:103420000B490886002003F077F809494886FFF722
:10343000A0FF03F07BFCFEF78EF9601CC4B2042CE5
:1034400005D10A488088401C084988800024CCE7C0
:10345000000200201403002094020020D00000206D
:10346000CC000020A8000020080000200C0700204D
:103470003249097801703149497841702F4989787A
:1034800081702E490979C1702C49C9790171704741
:103490001FB500200290039000BF34E06846FFF79C
:1034A000E7FF0522694602A808F02CFC38B94FF462
:1034B000967300221146104608F054F923E0DDE926
:1034C0000001CDE9020108F0D5FA054614210020DB
:1034D00003F0C9F80446284608F0D0FA4CB1184861
:1034E000007840F2012141EA004060602046FDF78B
:1034F000A1FE08F0BFFA05462146002003F0A3F81C
:10350000284608F0BBFAC9E708B500BF15E06A46CF
:1035100000210C48006806F012FF04462178491E7D
:10352000C8B2FEF754FD08F0A5FA05462146002072
:1035300003F089F8284608F0A1FAE8E7A80000207F
:10354000080000205C00002010B51421002003F0CA
:103550008AF8F74908600846006810B10020096839
:10356000086110BD38B504464FF6FF70F1498880F8
:10357000F148006800F00200C0B9F048007838B99E
:1035800040F2DC52EE480178642000F088FE06E04C
:1035900040F2DC52EB480178642000F080FE6A467D
:1035A0004FF49671E848006807F0A5FB0122182146
:1035B000E64805F0A3FE17E0E048007818B964205B
:1035C00000F043FE02E0642000F015FEE0480078C1
:1035D00050B90120DE490870DE4908700022182128
:1035E000DA4805F08BFE03E0DB4800780028E3D1E1
:1035F00000BF6A464FF49671D348006807F07BFB22
:10360000D4480078012829D017E0CC48007818B9B0
:10361000962000F0F0FD02E0962000F016FECC4867
:10362000007850B90120CA490870CA4908700022C0
:103630001821C64805F062FE03E0C748007801285B
:10364000E3D100BF00221821C04805F057FE6A46AA
:103650004FF49671BC48006807F04DFB0020BF494D
:103660000870BF480088401CBD490880B9480078F0
:1036700001280BD14FF6FF70AE4988800846C0790B
:1036800040F00100C871002008810DE04FF6FE7087
:10369000A84988800020088188700846C07940F0D9
:1036A0000100C87100204870012C0BD1A948007896
:1036B000012807D0FEF771FC05462946FF2000F0DF
:1036C00007F803E00020A349087038BD00BFFCE7FD
:1036D0002DE9F84307460C4608F0CCF98046142142
:1036E000002002F0C0FF054635B1404608F0C6F99B
:1036F0001421284608F0D3FB9A4830F814004FF6FE
:10370000FF7188420DD108F0B5F9804629460020A6
:1037100002F099FF404608F0B1F94FF6FF70BDE89E
:10372000F883FF2F12D083480079A0420EDDFEF708
:1037300034FCA04203D08C480078082807DB002026
:10374000FFF710FF00208849087000E00027854837
:1037500000EB471030F8140076490989461A86B9FB
:1037600044EA07207349888008F084F98046294696
:10377000002002F068FF404608F080F96D4880881C
:10378000CDE7AEB3310EE972310CA972310A69721C
:103790002E7229467548006806F08CFE6548C0798F
:1037A00020F0400040306349C8716A4600217048EB
:1037B000006807F0A0FA67480078012806D1FF20CA
:1037C0005C49888000206349087003E044EA0720D0
:1037D0005849888064480078401C634908705548FF
:1037E000C07920F040005349C8710846808896E7A8
:1037F000FFE75048808892E72DE9FE4307464FF0E7
:10380000FF094FF6FF720821684608F01EFB0024EE
:1038100017E0544800EB441030F8170078B15149D4
:1038200001EB441131F81710424A1289881A002816
:1038300001DB014600E0414289B22DF81410601C02
:10384000C4B2042CE5DB002408E03DF81400484530
:1038500002DA3DF81490A046601CC4B2042CF4DBDC
:103860001421002002F0FFFE05461421284608F02E
:1038700016FB3C4800EB481030F817002D49098929
:10388000461A36B92B488780808840EA0820BDE870
:10389000FE8326B3310EE972310CA972310A6972C6
:1038A0002E7229463148006806F004FE2148C0798E
:1038B00020F0400040301F49C87102AA00212C4866
:1038C000006807F018FA1B488780C07920F0400094
:1038D0001849C8710846808840EA0820D7E715488B
:1038E000808840EA0820D2E72DE9F041054608F03B
:1038F000C1F880461421002002F0B5FE0446002CD9
:1039000075D0404608F0BAF81421204608F0C7FAEE
:10391000287920282ED100202061287AE07001200B
:1039200060700020A070287A20716868A060C3E0F1
:10393000D0000020A800002010040240ED0000206C
:10394000EE000020EF000020E40000200004004012
:10395000010000200200002003000020420000209F
:10396000D0010020940200201E000020A4000020AE
:10397000E8000020287916283AD1287A00EBD07187
:103980004910A0EB410119B9287A401CC7B202E0E6
:10399000287A401EC7B2287AF84901EB401001EBA3
:1039A000471188420FD100202061A888000A2070AA
:1039B000287AE070002060700120A070287A2071C1
:1039C0006868A06078E000202061A888000A207064
:1039D000287AE070002060700220A070687A207160
:1039E000686820F0FF0040F01000A06064E070E024
:1039F0002879102813D16868C0F3007078B10020CE
:103A00002061A888000A2070287AE0700020607089
:103A10000220A070687A20716868A0604CE0287964
:103A200011280BD1002020612879112801D1032011
:103A3000A070002060706868A0603DE028792228AE
:103A400006D10420A070002060706868A06033E098
:103A50002879102810D16868C0F3007060B9002080
:103A60002061287AE070687A20710020607005205B
:103A7000A0706868A0601FE02879122810D16868DB
:103A8000C0F3007060B900202061287AE070687A85
:103A90002071002060700620A0706868A0600BE0B4
:103AA00007F0E8FF80462146002002F0CCFD4046AA
:103AB00007F0E4FFBDE8F08107F0D3FEE060B04816
:103AC000066800E0366930690028FBD13461206166
:103AD00009E007F0CFFF80462146002002F0B3FD49
:103AE000404607F0CBFF00BFE4E72DE9F041074671
:103AF000002400263C462069002870D02069807888
:103B000078B9A0482169006806F0D4FC9E48C079C5
:103B100020F00200801C9C49C87126693069206130
:103B20003AE12069807801280FD19848216900681E
:103B300006F0C0FC9448C07920F00200801C924935
:103B4000C87126693069206126E1206980780228E1
:103B50000FD18F482169006806F0ACFC8A48C07913
:103B600020F00200801C8849C871266930692061F4
:103B700012E120698078032832D107F07BFF80466C
:103B80001421002002F06FFD0546404607F076FF45
:103B90001421284608F083F9206980686860294666
:103BA0007C48006806F0DAFE7748C07920F0010012
:103BB000401C7549C8710846C07920F00200801C7D
:103BC000C87126693069206107F054FF804631468C
:103BD000002002F038FD404607F050FFDCE0BEE078
:103BE00020698078042832D107F044FF80461421F0
:103BF000002002F038FD054675B1404607F03EFF53
:103C00001421284608F04BF920698068686029462D
:103C10006048006806F0A2FE5B48C07920F0010011
:103C2000401C5949C8710846C07920F00200801C28
:103C3000C87126693069206107F01CFF8046314653
:103C4000002002F000FD404607F018FFA4E02069C4
:103C50008078052833D14C48C07920F00200801CC0
:103C60004949C87107F006FF80461421002002F080
:103C7000FAFC0546002DB1D0404607F0FFFE1421A6
:103C8000284608F00CF92069C0782872206901796B
:103C9000697220698068686029463E48006806F0BD
:103CA0005DFE26693069206107F0E4FE80463146FA
:103CB000002002F0C8FC404607F0E0FE6CE02069FE
:103CC000807806283DD107F0D5FE804614210020DB
:103CD00002F0C9FC0546002D5ED0404607F0CEFE3E
:103CE0001421284608F0DBF82069C0782872206982
:103CF0000179697220690079C01118B90021A9728F
:103D0000E97208E0206900790121B1EBE01F02D1DE
:103D1000FF21A972E97220698068686029461D4800
:103D2000006806F01BFE26693069206107F0A2FEDC
:103D300080463146002002F086FC404607F09EFE99
:103D40002AE026693069206107F094FE80463146FA
:103D5000002002F078FC404607F090FE1CE0266947
:103D60003069206107F086FE80463146002002F06F
:103D70006AFC404607F082FEBDE8F0819402002014
:103D8000D0000020DC000020A8000020D40000208B
:103D9000D80000204400002000BFEDE770B50024EB
:103DA000002582220021444802F02EFA00BF19E0CB
:103DB000002413E0680100EB44003F49095C6801FE
:103DC00000EB4400401C3C4A105C01EB00203B49E6
:103DD00001EB451121F81400601CC4B2102CE9DB82
:103DE000681CC5B2042DE3DB012070BD70B5002452
:103DF00000258221324808F030F800BF1CE0002482
:103E000016E02E4800EB451010F81400690101EB94
:103E100044012B4A5054294800EB451030F8140057
:103E20000112680100EB4400401C1154601CC4B234
:103E3000102CE6DB681CC5B2042DE0DB8021204895
:103E400002F050FE00121E4981F8800080211C48BB
:103E500002F048FE1A4981F88100822200211848A8
:103E600002F078FA82224FF48051154802F072FA7B
:103E700070BD10B502465AB9084601EBD0735C100C
:103E80000423A3400F4CE47923430E4CE3710FE06D
:103E9000012A0BD1084601EBD0735C100423A34028
:103EA000084CE4799C43074BDC7101E0002010BD15
:103EB0000448C079FBE7000056040020940200206B
:103EC000D4030020A800002010B50446012C02D124
:103ED000FE49087003E014B90020FC490870012273
:103EE0005103FA4802F036FA10BD30B589B00446E5
:103EF0000D460121480403F0B7FC0121202003F006
:103F000059FC4020049002208DF8140001208DF807
:103F1000170004A9EE4803F0AFF903220621EC488C
:103F200003F035FAADF804500020ADF80600029415
:103F3000ADF80C0001A9E74804F03FFD0020ADF802
:103F400018000220ADF81A000120ADF81C00002076
:103F5000ADF81E00ADF8200006A9DE4805F004F912
:103F60000221DC4805F0F2F901220221D94805F0CE
:103F7000C5F919208DF800000B208DF801000020F4
:103F80008DF8020001208DF80300684603F083F8E5
:103F90000121D04804F09AFD09B030BD30B589B098
:103FA00004460D460121080403F05EFC01211020A7
:103FB00003F000FC2020049002208DF81400012062
:103FC0008DF8170004A9C44803F056F9032205210F
:103FD000C14803F0DCF9ADF804500020ADF806004C
:103FE0000294ADF80C0001A9BC4804F0E6FC0020E6
:103FF000ADF818000220ADF81A000120ADF81C0041
:104000000020ADF81E00ADF8200006A9B34805F069
:10401000ABF80221B14805F099F900220221AF481E
:1040200005F06CF918208DF800000C208DF80100C7
:1040300000208DF8020001208DF80300684603F08F
:104040002AF80021A54804F041FD09B030BD30B583
:1040500089B004460D460121022003F0F4FB012142
:10406000022003F0A7FB0320049002208DF8140027
:1040700001208DF8170004A9994803F0FDF80222E9
:104080000021974803F083F902220121944803F0AC
:104090007EF9ADF804500020ADF806000294ADF8AA
:1040A0000C0001A98F4804F088FC0820ADF8180026
:1040B0000A20ADF81A000120ADF81C000020ADF870
:1040C0001E00ADF8200006A9864805F04DF80C202A
:1040D000ADF818000A20ADF81A000120ADF81C0058
:1040E0000020ADF81E00ADF8200006A97D4805F0BF
:1040F0003BF818217B4805F029F90022182179485E
:1041000005F0FCF81D208DF800000D208DF8010051
:1041100000208DF8020001208DF80300684602F0AF
:10412000BAFF01216F4804F0D1FC09B030BD7FB562
:1041300004460D460121102003F085FBADF8045024
:104140000020ADF806000294ADF80C0001A9664805
:1041500004F033FC0121644805F0F8F8012211460F
:10416000614805F0CBF801215F4804F0AFFC362030
:104170008DF800000A208DF8010000208DF8020063
:1041800001208DF80300684602F085FF7FBD1CB555
:104190000121402003F00EFBC020009001208DF88B
:1041A000040000208DF8060003208DF80500012092
:1041B0008DF8070069464D4803F05EF801210420A0
:1041C00003F0F8FA4FF44050009001208DF80400FD
:1041D00000208DF8060003208DF8050001208DF8E1
:1041E00007006946424803F047F84FF480514048C1
:1041F00003F0C0F81CBD38B50446002000903D49CE
:1042000008603D490C7001203C49C1F89C02012125
:10421000354804F05BFC6A4600213948006806F026
:104220006AFD35490C7000203249091D08600121E2
:104230002D4804F04BFC6A4600213148006806F026
:104240005AFD01202F49087038BD38B504460020BA
:10425000009001202749086027490C702749C1F8C0
:104260009C020121204804F031FC6A4600212448C8
:10427000006806F040FD20490C7000201D49091D12
:1042800008600121184804F021FC6A4600211C48FE
:10429000006806F030FD00201A49087038BD2DE98D
:1042A000F04706460F46144600254FF064084FF0CD
:1042B000FF3A4FF6FF7014498880464505D9A6EBB2
:1042C0000800B4FBF0F04FEA50091FE0ED000020B9
:1042D0000014024000440140001002400040014030
:1042E000000402400004004000100040001802409A
:1042F0000008024098024342EC00002000004342C4
:10430000E00000201C000020A800002001207149CE
:10431000087071480078874229D100BF1EE06F48BD
:10432000007818B901206D49087019E0002504E0F3
:104330003046FFF760FF681CC5B2022DF8DB684805
:10434000007828B967480089401C6649088104E064
:1043500064480089401E63490881641E002CDED138
:1043600000BF00205B4908700120BDE8F0875E486F
:104370000078874231D100BF27E05848007828B93B
:104380000120564908705949087020E0002504E0D2
:104390003046FFF75AFF681CC5B2022DF8DB5048C3
:1043A000007828B94F480089401E4E49088104E032
:1043B0004C480089401C4B4908814848007818B98E
:1043C00001204649087002E0641E002CD5D100BFD0
:1043D0000020404908700120C7E70020C5E710B55C
:1043E00005F00EFC0121424804F09FFF012815D181
:1043F00040480088401D3F4908803F4800780988B0
:10440000401A02280ADC00203A4908800021384876
:1044100004F05CFB3948006806F01CFD01213448BB
:1044200004F094FF05F007FC10BD10B505F0E8FBA3
:104430000221334804F079FF60B1324800680089F6
:1044400040B93048006806F005FD2F48C088401C80
:104450002D49C88003212A4804F078FF05F0EBFBC2
:1044600010BD10B505F0CCFB0221284804F05DFF1B
:1044700058B1274800880A30254908806120194929
:1044800088700221214804F061FF05F0D4FB10BDC3
:1044900010B505F0B5FB10211E4804F046FF40B1F1
:1044A0001D480078401C1C4908701021194804F070
:1044B0004DFF0821174804F038FF40B11648007836
:1044C000401C154908700821124804F03FFF05F010
:1044D000B2FB10BD1D000020EE00002001000020F6
:1044E000ED000020A8000020EF00002002000020C6
:1044F00000100040F0000020EC000020E000002050
:1045000000440140E40000200C070020004001406E
:10451000D00100200004004042000020F8B506460B
:104520000F4615461C463946304603F0DAFC29464C
:10453000F84803F060FD04F0010098B10122022167
:10454000F44804F038F814208DF8000006208DF8A7
:10455000010000208DF8020001208DF8030068465C
:1045600002F099FD04F0020098B101221021E948FF
:1045700004F021F815208DF8000008208DF80100C6
:1045800000208DF8020001208DF80300684602F03B
:1045900082FD04F0040098B101220221DE4804F0FB
:1045A0000AF840208DF8000007208DF80100002057
:1045B0008DF8020001208DF80300684602F06BFDC3
:1045C00004F0080080B101221021D34803F0F3FF6A
:1045D00041208DF8000009208DF8010000208DF8A1
:1045E000020001208DF803000020F8BDF0B52DED8C
:1045F000028B89B00746B0EE408A0E46154600246D
:1046000017B1012F7DD1A6E00121084603F0D2F8B1
:104610000121480603F017F94FF4C050079002201B
:104620008DF8200000208DF8220003208DF8210055
:1046300001208DF8230007A9B84802F01DFE0922C9
:104640000B21B64802F0A3FE09220C21B34802F068
:104650009EFE00243BE004EB4400B14901EB8000E6
:1046600090ED000AB4EE480AF1EE10FA2DD10020C8
:104670008DF8160001208DF8170000208DF8180025
:104680008DF819008DF81A008DF81B008DF8126056
:1046900004EB440001EB800000798DF8130004EB7B
:1046A000440001EB800040798DF8140004EB4400D5
:1046B00001EB800080798DF8150004EB440001EBDC
:1046C00080000089ADF810000E24601CC4B20E2CCE
:1046D000C1DB05F00100E8B100208DF80A008DF87B
:1046E0000B0001208DF80C000020ADF80000ADF8A3
:1046F0000200ADF80400ADF80600ADF80800012096
:1047000000E0CDE08DF80D002B466A4604A98148F3
:10471000FFF704FF05F00200E0B101208DF80A0068
:1047200000208DF80B0001208DF80C000020ADF862
:104730000000ADF80200ADF80400ADF8060001205D
:10474000ADF808008DF80D002B466A4604A97148A3
:10475000FFF7E4FEA5E00121022003F02BF8012180
:10476000880603F070F86020079002208DF8200082
:1047700000208DF8220003208DF8210001208DF803
:10478000230007A9674802F077FD09220521654843
:1047900002F0FDFD09220621624802F0F8FD002426
:1047A0003BE004EB44005E4901EB800090ED000A21
:1047B000B4EE480AF1EE10FA2DD100208DF8160063
:1047C00001208DF8170000208DF818008DF81900D1
:1047D0008DF81A008DF81B008DF8126004EB440070
:1047E00001EB800000798DF8130004EB440001EB2D
:1047F000800040798DF8140004EB440001EB800048
:1048000080798DF8150004EB440001EB80000089ED
:10481000ADF810000E24601CC4B20E2CC1DB05F0F4
:104820000400E0B10E208DF80A0000208DF80B0086
:1048300001208DF80C000020ADF80000ADF802005A
:10484000ADF80400ADF80600ADF8080001208DF8C1
:104850000D002B466A4604A92F48FFF75FFE05F0BE
:104860000800E0B103208DF80A0000208DF80B004D
:1048700001208DF80C000020ADF80000ADF802001A
:10488000ADF80400ADF806000120ADF808008DF881
:104890000D002B466A4604A91F48FFF73FFE00E0C3
:1048A00000BF00BF09B0BDEC028BF0BD10B50446DF
:1048B00074B9012200219FED1C0A0846FFF796FEFD
:1048C000042200219FED180A0120FFF78FFE4EE021
:1048D000012C0ED101220021B3EE040A0846FFF795
:1048E00085FE04220021B3EE040A0120FFF77EFEBC
:1048F0003DE0022C1AD101220021B2EE040A084642
:10490000FFF774FE04220021B2EE040A0120FFF733
:104910006DFE2CE000640040006800400000024092
:10492000240100200004024000004842032C0ED164
:1049300001220021B1EE040A0846FFF757FE0422C7
:104940000021B1EE040A0120FFF750FE0FE0042C15
:104950000DD1012200219FEDFE0A0846FFF746FE19
:10496000042200219FEDFA0A0120FFF73FFE10BD4F
:1049700008B5684602F08FFB01221146F54803F0A6
:104980001AFE3F208DF8000004208DF80100002061
:104990008DF8020001208DF80300684602F07BFBD1
:1049A00001221146EC4803F006FE13208DF80000AA
:1049B00005208DF8010000208DF8020001208DF8FF
:1049C0000300684602F067FB08BDE449096841F04E
:1049D0000101E24A116050B91146096821F47F4192
:1049E00011601146096841F4D05111600CE00128B2
:1049F0000AD1DA49096821F47F41D84A1160114689
:104A0000096841F480711160D449096821F00101FD
:104A1000D24A1160704710B51421002001F023FE26
:104A2000CF4908600846006810B100200968086195
:104A30001421002001F017FEC9494860084640686B
:104A400010B10020496808611421002001F00BFE1C
:104A5000C44908600846006810B100200968086170
:104A60001421002001F0FFFDBE494860084640685F
:104A700010B10020496808611421002001F0F3FD05
:104A8000B94908600846006810B10020096808614B
:104A90001421002001F0E7FDB34948600846406852
:104AA00010B10020496808611421002001F0DBFDED
:104AB000AE4908600846006810B100200968086126
:104AC0001421002001F0CFFDA949086008460068C4
:104AD00010B100200968086110BD10B500230C78E2
:104AE0002CB90C7802550C78641C0C7015E005E0AC
:104AF000C45C944200D104E05C1CE3B20C789C429C
:104B0000F6DC00BF0C789C4207D10C781E2C04DA2E
:104B10000C7802550C78641C0C7010BD70B50546FD
:104B20000C46207A10B1042828D113E0207AA8700E
:104B3000607A6870A07A287020686860A27A04F1B0
:104B40000B0105F1080007F009F91421204607F0D0
:104B5000A6F918E0207AA870607A6870A07A2870A8
:104B600060686860A27A04F10B0105F1080007F0A3
:104B7000F5F81421204607F092F904E014212046AC
:104B800007F08DF900BF00BF687870BD70B586B0C2
:104B900005460E46144615B1012D4AD118E00021F4
:104BA0006D4803F070FC10B9002006B070BD01AA7A
:104BB0000021694803F0E4FB01A92046FFF7AEFF9E
:104BC00028B91421204607F06AF90020EDE731E00A
:104BD0000021604803F057FC08B90220E5E701AA6C
:104BE00000215C4803F0CCFB9DF80D0002281AD18F
:104BF00001A960480068FFF791FF5E4800684068BF
:104C0000C0F307405C49097888420AD15B480068D4
:104C100006F020F95AA006F093FF142101A807F02E
:104C20003EF90220C1E701A92046FFF777FF0020E7
:104C3000BBE700BF00BF2078B7E730B500210022F6
:104C40000023B0B9444C18342468210E424C183467
:104C50002468C4F30742404C18342468C4F3021398
:104C60003D4C1834246844F070043B4D18352C60DA
:104C700017E0012815D1374C18342468210E354C23
:104C800018342468C4F30742324C18342468C4F33F
:104C90000213304C1834246844F070042D4D18353C
:104CA0002C6030BD2DE9F04706460D4614461F46E0
:104CB000DDF820804FF0000906F0DCFE8246354822
:104CC00004720CB9056003E0042C01D13148456041
:104CD000002030494872084680F80A80424639462A
:104CE0000B3007F03BF8504606F0C8FE16B1012E17
:104CF0000CD105E02749184803F05CFA814606E02C
:104D00002449144803F056FA814600E000BF00BF72
:104D10004846BDE8F0872DE9FC4105460C460020D9
:104D20000190002D63D106F0A5FE06461A480078D2
:104D3000A0BB012018490870304606F09FFE2846A7
:104D4000FFF77BFF04481830006800F0040026E0FD
:104D50000000FA4200680040006400400066004025
:104D6000F8000020000100200801002010010020B0
:104D7000140100200C000020080000208800002002
:104D8000CAD5B5BDD2BBB8F6D3A6B4F0B0FC0D0AF7
:104D900000000000E4060020CC01002023E0E8B978
:104DA00020780090A27804F1080300206168FFF7E2
:104DB00079FF01AA3221F948006805F0C0FAC7B2AC
:104DC000042F06D100270020F54908700420BDE813
:104DD000FC810020F24908700320F8E70020F04928
:104DE00008700220F3E7304606F048FE3EE0012D51
:104DF0003CD106F03FFE0646EA48007890BB012011
:104E0000E8490870304606F039FE2846FFF715FFDE
:104E1000E548006800F00400F8B920780090A27816
:104E200004F1080301206168FFF73CFF01AA322169
:104E3000DE48006805F083FA00F0FF08B8F1040FBF
:104E400006D14FF000080020D64908700420BEE7C4
:104E50000020D44908700320B9E70020D149087028
:104E60000220B4E7FFE7304606F008FE0120AEE777
:104E70002DE9F04106460D461446002706F0FAFDDE
:104E80008046CB4804720CB9056003E0042C01D1C4
:104E9000C74845600220C6494872404606F0EEFD0C
:104EA00016B1012E0DD105E0C149C24803F082F9C7
:104EB000074607E0BE49BC48183803F07BF90746AF
:104EC00000E000BF00BF3846BDE8F0812DE9F8439F
:104ED00004468846914600200090002C37D106F009
:104EE000C9FD0546B448007868BB0120B249087086
:104EF000284606F0C3FD2046FFF79FFEAD48183058
:104F0000006800F00400C8B94A4641460020FFF797
:104F1000AFFF6A463221A148006805F010FAC6B218
:104F2000042E06D100260020A34908700420BDE805
:104F3000F8830020A04908700320F8E700209E496C
:104F400008700220F3E7284606F098FD36E0012CB1
:104F500034D106F08FFD05469848007858BB0120F3
:104F600096490870284606F089FD2046FFF765FE41
:104F70008D48006800F00400C0B94A46414601204F
:104F8000FFF776FF6A4632218848006805F0D7F9B6
:104F9000C7B2042F05D100270020884908700420DB
:104FA000C5E70020854908700320C0E70020834939
:104FB00008700220BBE7284606F060FD0120B6E736
:104FC0002DE9F04781460D460027002400262C4697
:104FD000B9F1000F03D0B9F1010F77D159E054E0D6
:104FE00020694068C0F3806000B301283DD106F01D
:104FF00041FD82461421002001F035FB0646504653
:1050000006F03CFD8EB114223046216906F0EBFE1D
:105010006B48046800E0246920690028FBD1266100
:1050200030616848006805F015FF1FE006F022FDBA
:1050300082461421002001F016FB0646504606F079
:105040001DFD8EB114223046216906F0CCFE5E486B
:10505000046800E0246920690028FBD126613061E2
:105060005A48006805F0F6FE00E000BF00BF2C467D
:1050700027693869206106F0FDFC82463946002028
:1050800001F0E1FA504606F0F9FC20690028A7D1AA
:10509000BCE0B5E020694068C0F30070B8B9206991
:1050A0008088C0F307204A49097888420FD02C46EF
:1050B00027693869206106F0DDFC82463946002008
:1050C00001F0C1FA504606F0D9FC99E09DE0206954
:1050D0004068C0F307483F480078804502D0B8F1E7
:1050E000FF0F7FD13C484088401C3B4948802069E5
:1050F0004068C0F3806000B301283DD106F0BAFCDF
:1051000082461421002001F0AEFA0646504606F011
:10511000B5FC8EB114223046216906F064FE2848A1
:10512000446800E0246920690028FBD126613061D1
:105130002A48006805F08EFE1FE006F09BFC8246C0
:105140001421002001F08FFA0646504606F096FC26
:105150008EB114223046216906F045FE1A48446893
:1051600000E0246920690028FBD1266130611C48D9
:10517000006805F06FFE00E000BF00BF2C46276905
:105180003869206106F076FC82463946002001F03D
:105190005AFA504606F072FC32E023E098000020F4
:1051A000CC010020CD010020186800409C000020A8
:1051B000F806002000640040CE010020CF0100204E
:1051C000080100206800002000010020700000207D
:1051D00009000020080000200C0700206C000020BF
:1051E000740000202C4627693869206106F042FCD3
:1051F00082463946002001F026FA504606F03EFC71
:10520000206900287FF446AF00E000BF00BFBDE882
:10521000F08730B5039C6060A17023701568A560AD
:105220005568E56030BD2DE9FC5F05460E461F461A
:10523000DDE90CB4DDF838804FF00009CA4615B13D
:10524000012D71D142E006F015FC019014210020DF
:1052500001F009FA0446019806F010FCA4B30020FE
:1052600020615B463A46042130460094FFF7D1FFA7
:1052700018E0022300221146104606F073FA09F1E5
:1052800001001FFA80F9C1450CDB06F0F3FB019029
:105290002146002001F0D7F9019806F0EFFB00202D
:1052A000BDE8FC9F21462846FFF735FD0428E0D1E4
:1052B00006F0E0FB01902146002001F0C4F90198BE
:1052C00006F0DCFB0120EBE7FFE742E006F0D2FB53
:1052D00001901421002001F0C6F90446019806F05F
:1052E000CDFB0CB1002020615B463A4604213046DC
:1052F0000094FFF78EFF18E00223002211461046AB
:1053000006F030FA0AF101001FFA80FAC2450CDB00
:1053100006F0B0FB01902146002001F094F90198BD
:1053200006F0ACFB0020BBE711E021462846FFF762
:10533000F2FC0428E0D106F09DFB019021460020FC
:1053400001F081F9019806F099FB0120A8E70020FF
:10535000A6E700BF0020A3E710B503469C0644EA79
:10536000024444EA012010BD2DE9FF5F80460D464E
:10537000002700242C46B8F1000F03D0B8F1010F2C
:1053800067D135E030E020694068C0F3074A206902
:105390008088C0F3072B206906795A4651460120C0
:1053A000FFF7DAFF40EA06092069406820F08060D4
:1053B0002169486064200821CDE900150290206928
:1053C00000F10803042249464046FFF72CFF2769F5
:1053D0003869206106F04EFB03903946002001F049
:1053E00032F9039806F04AFB20690028CBD131E05E
:1053F0002BE02069067920694068C0F30740FF2848
:1054000004D140462169FBF757FA11E02069406852
:10541000C0F3007038B100953246494640462369D2
:10542000FBF7E5FA04E02A4640462169FBF763FAF8
:1054300027693869206106F01DFB0390394600207A
:1054400001F001F9039806F019FB20690028D0D17A
:1054500000E000BF00BFBDE8FF9F2DE9F34F81B022
:105460000C466068C0F3007000283AD094F804A09D
:105470006068C0F30748A088C0F307294A46414640
:105480000020FFF769FF40EA0A0040F0805660689C
:1054900020F080606060042231460198FFF716FD1D
:1054A0000546042D05D1ED480CC8EDA006F048FBDB
:1054B0002FE0032D0DD1042231460198FFF706FDA0
:1054C0008346E648CDF800B00CC8EFA006F038FBE4
:1054D0001FE0022D1DD1E1480CC8FAA006F030FBF8
:1054E00017E06068C0F3007088B9A088C0F3072196
:1054F000676861F31F27FD480078002101EB004039
:10550000C619042231460198FFF7E0FC01E0BDE82E
:10551000FE8F00BFFBE72DE9F04106460F46002550
:1055200000243C4616B1012E36D115E010E0F048BB
:10553000006805F08FFC25692869206106F09AFA59
:1055400080462946002001F07EF8404606F096FA93
:1055500020690028EBD120E01AE020694068C0F300
:105560000740FF2804D130462169FBF7A5F902E086
:105570002069FBF77AF925692869206106F07AFA33
:1055800080462946002001F05EF8404606F076FA93
:1055900020690028E1D100E000BF00BFBDE8F08134
:1055A0002DE9F04100260025002404F029FB06F037
:1055B00061FA07461421002001F055F804461CB397
:1055C000384606F05BFA224600210846FFF7DEFA6D
:1055D0000646002E0DDDC748056800E02D692869E4
:1055E0000028FBD12C612061C348006805F032FC23
:1055F0000DE006F03FFA07462146002001F023F8AF
:10560000384606F03BFA02E0384606F037FA04F076
:1056100012FBBDE8F0812DE9F0410026002404F0E2
:10562000EFFA06F027FA07461421002001F01BF8D4
:105630000446E4B1384606F021FA22460021012052
:10564000FFF7A4FA05466DB9AA48466800E0366936
:1056500030690028FBD134612061A848006805F05A
:10566000F9FB07E02146002000F0EDFF02E038469C
:1056700006F004FA04F0DFFABDE8F08170B501210C
:105680009F4803F000F8012811D19D4808300068B8
:10569000C0F340050DB1042400E0032421469948DD
:1056A000006804F007FF0121954803F086F870BDFB
:1056B00070B50121944802F0E6FF012816D1924806
:1056C00008300068C0F340050DB1042400E0032455
:1056D00021468E48006804F0EDFE8D484088401C4D
:1056E0008B4948800121884803F067F870BD7047F6
:1056F00018B90021874A11700AE0012803D1282136
:10570000844A117004E0022802D15F21814A11709D
:105710007047F0B505AD95E8E010099C2270637004
:10572000A570E670277184F805C0F0BD704770471A
:105730002DE9F04104460F460026002506F09AF9AF
:1057400080461421002000F08EFF05461DB3404620
:1057500006F094F914223946284606F044FB14B9A1
:105760006D48066803E0012C01D16C48066800E032
:10577000366930690028FBD13561286124B9684851
:10578000006805F067FB09E0012C07D16548006857
:1057900005F060FB02E0404606F070F9BDE8F081DC
:1057A0007FB504460020039000262FE0C821207812
:1057B000CDE90171009004F1080304220020616822
:1057C000FFF731FD054605B97FBD03AA4FF4FA7115
:1057D0004748006805F08FFA9DF80C0020B9524840
:1057E000002101808170EFE79DF80C000A2808D1A4
:1057F000701CC6B2032E09DB4B480021018081706A
:10580000E2E74948002101808170DDE7CEE77FB5FE
:105810000446002003900026A1E04FF4FA7120789E
:10582000CDE90171009004F10803042201206168B0
:10583000FFF7F9FC054605B97FBD03AA4FF4FA71DD
:105840003A48006805F057FA9DF80C0020B938482E
:10585000002101808170EFE76CE000001000002063
:105860003CCAC2CEF14944A3BA256C6C753EB5F76B
:10587000D3C3D3A6B4F0D6A1B7A2CBCDBAAFCAFDDD
:10588000B3C9B9A60D0A00003CCAC2CEF14944A36F
:10589000BA256C6C753EA3A8455252A3A9B5F7D39F
:1058A000C3D3A6B4F0D6A1B7A2CBCDBAAFCAFDCAB6
:1058B000A7B0DCA3ACD6D8B7A2B4FAC2EB25640D6E
:1058C0000A0000003CCAC2CEF14944A3BA256C6C60
:1058D000753EB5F7D3C3D3A6B4F0D6A1B7A2CBCD4E
:1058E000BAAFCAFDB3C9B9A6000000000800002085
:1058F00084000020F80000206000002064000020E8
:105900000064004098000020006800409C000020D7
:105910000C070020F40000201001002014010020DA
:105920008C000020900000201E0100208800002034
:10593000210100209DF80C000A280BD1701CC6B272
:10594000032E0CDB314800210180817030A006F06D
:10595000F7F871E72D480021018081706CE75CE762
:105960002DE9E043814694F804806068C0F307465F
:10597000A088C0F307273A4631460020FFF7ECFC29
:1059800040EA0805606820F0806060602846BDE855
:10599000E083FEB504466068C0F3007088B120461D
:1059A000FFF7DEFF40F080556421207804F1080302
:1059B0000422CDE90181009029460120FFF733FC44
:1059C00021E06068C0F30070E0B90020174908705A
:1059D000A088C0F30721666861F31F261448007889
:1059E000002101EB004085196421207804F10803AF
:1059F0000422CDE90181009029460120FFF713FC24
:105A0000074600E0FEBD00BFFCE7000021010020CA
:105A1000C4BFB1EAD4DAD6D8CAD4BAF3C3BBD3D0A0
:105A2000BBD8B8B4A3A10D0A00000000FD010020FE
:105A3000080000201CB50121202001F0BBFE4FF41E
:105A40008070009001208DF8040000208DF8060081
:105A500003208DF8050001208DF8070069462548D0
:105A600001F00AFC4FF48071224801F081FC1CBD5A
:105A700010B52148007820B900202049088020492D
:105A800008701E480088D0B14FF48071194801F0A9
:105A90006FFCC82300221146104605F063FE4FF448
:105AA0008071144801F066FC322300221146104632
:105AB00005F058FE11480088401E10490880104823
:105AC0000078012814D101020A4801F051FCC823D2
:105AD00000221146104605F045FE4FF4807105483E
